{
  "_format": "hh-sol-artifact-1",
  "contractName": "TokenMock",
  "sourceName": "contracts/mocks/TokenMock.sol",
  "abi": [
    {
      "inputs": [
        {
          "internalType": "string",
          "name": "_name",
          "type": "string"
        },
        {
          "internalType": "string",
          "name": "_symbol",
          "type": "string"
        },
        {
          "internalType": "address",
          "name": "_lzEndpoint",
          "type": "address"
        },
        {
          "internalType": "address",
          "name": "_delegate",
          "type": "address"
        }
      ],
      "stateMutability": "nonpayable",
      "type": "constructor"
    },
    {
      "inputs": [
        {
          "internalType": "address",
          "name": "target",
          "type": "address"
        }
      ],
      "name": "AddressEmptyCode",
      "type": "error"
    },
    {
      "inputs": [
        {
          "internalType": "address",
          "name": "account",
          "type": "address"
        }
      ],
      "name": "AddressInsufficientBalance",
      "type": "error"
    },
    {
      "inputs": [
        {
          "internalType": "address",
          "name": "spender",
          "type": "address"
        },
        {
          "internalType": "uint256",
          "name": "allowance",
          "type": "uint256"
        },
        {
          "internalType": "uint256",
          "name": "needed",
          "type": "uint256"
        }
      ],
      "name": "ERC20InsufficientAllowance",
      "type": "error"
    },
    {
      "inputs": [
        {
          "internalType": "address",
          "name": "sender",
          "type": "address"
        },
        {
          "internalType": "uint256",
          "name": "balance",
          "type": "uint256"
        },
        {
          "internalType": "uint256",
          "name": "needed",
          "type": "uint256"
        }
      ],
      "name": "ERC20InsufficientBalance",
      "type": "error"
    },
    {
      "inputs": [
        {
          "internalType": "address",
          "name": "approver",
          "type": "address"
        }
      ],
      "name": "ERC20InvalidApprover",
      "type": "error"
    },
    {
      "inputs": [
        {
          "internalType": "address",
          "name": "receiver",
          "type": "address"
        }
      ],
      "name": "ERC20InvalidReceiver",
      "type": "error"
    },
    {
      "inputs": [
        {
          "internalType": "address",
          "name": "sender",
          "type": "address"
        }
      ],
      "name": "ERC20InvalidSender",
      "type": "error"
    },
    {
      "inputs": [
        {
          "internalType": "address",
          "name": "spender",
          "type": "address"
        }
      ],
      "name": "ERC20InvalidSpender",
      "type": "error"
    },
    {
      "inputs": [],
      "name": "FailedInnerCall",
      "type": "error"
    },
    {
      "inputs": [],
      "name": "InvalidDelegate",
      "type": "error"
    },
    {
      "inputs": [],
      "name": "InvalidEndpointCall",
      "type": "error"
    },
    {
      "inputs": [],
      "name": "InvalidLocalDecimals",
      "type": "error"
    },
    {
      "inputs": [
        {
          "internalType": "bytes",
          "name": "options",
          "type": "bytes"
        }
      ],
      "name": "InvalidOptions",
      "type": "error"
    },
    {
      "inputs": [],
      "name": "LzTokenUnavailable",
      "type": "error"
    },
    {
      "inputs": [
        {
          "internalType": "uint32",
          "name": "eid",
          "type": "uint32"
        }
      ],
      "name": "NoPeer",
      "type": "error"
    },
    {
      "inputs": [
        {
          "internalType": "uint256",
          "name": "msgValue",
          "type": "uint256"
        }
      ],
      "name": "NotEnoughNative",
      "type": "error"
    },
    {
      "inputs": [
        {
          "internalType": "address",
          "name": "addr",
          "type": "address"
        }
      ],
      "name": "OnlyEndpoint",
      "type": "error"
    },
    {
      "inputs": [
        {
          "internalType": "uint32",
          "name": "eid",
          "type": "uint32"
        },
        {
          "internalType": "bytes32",
          "name": "sender",
          "type": "bytes32"
        }
      ],
      "name": "OnlyPeer",
      "type": "error"
    },
    {
      "inputs": [],
      "name": "OnlySelf",
      "type": "error"
    },
    {
      "inputs": [
        {
          "internalType": "address",
          "name": "owner",
          "type": "address"
        }
      ],
      "name": "OwnableInvalidOwner",
      "type": "error"
    },
    {
      "inputs": [
        {
          "internalType": "address",
          "name": "account",
          "type": "address"
        }
      ],
      "name": "OwnableUnauthorizedAccount",
      "type": "error"
    },
    {
      "inputs": [
        {
          "internalType": "address",
          "name": "token",
          "type": "address"
        }
      ],
      "name": "SafeERC20FailedOperation",
      "type": "error"
    },
    {
      "inputs": [
        {
          "internalType": "bytes",
          "name": "result",
          "type": "bytes"
        }
      ],
      "name": "SimulationResult",
      "type": "error"
    },
    {
      "inputs": [
        {
          "internalType": "uint256",
          "name": "amountLD",
          "type": "uint256"
        },
        {
          "internalType": "uint256",
          "name": "minAmountLD",
          "type": "uint256"
        }
      ],
      "name": "SlippageExceeded",
      "type": "error"
    },
    {
      "anonymous": false,
      "inputs": [
        {
          "indexed": true,
          "internalType": "address",
          "name": "owner",
          "type": "address"
        },
        {
          "indexed": true,
          "internalType": "address",
          "name": "spender",
          "type": "address"
        },
        {
          "indexed": false,
          "internalType": "uint256",
          "name": "value",
          "type": "uint256"
        }
      ],
      "name": "Approval",
      "type": "event"
    },
    {
      "anonymous": false,
      "inputs": [
        {
          "components": [
            {
              "internalType": "uint32",
              "name": "eid",
              "type": "uint32"
            },
            {
              "internalType": "uint16",
              "name": "msgType",
              "type": "uint16"
            },
            {
              "internalType": "bytes",
              "name": "options",
              "type": "bytes"
            }
          ],
          "indexed": false,
          "internalType": "struct EnforcedOptionParam[]",
          "name": "_enforcedOptions",
          "type": "tuple[]"
        }
      ],
      "name": "EnforcedOptionSet",
      "type": "event"
    },
    {
      "anonymous": false,
      "inputs": [
        {
          "indexed": false,
          "internalType": "address",
          "name": "inspector",
          "type": "address"
        }
      ],
      "name": "MsgInspectorSet",
      "type": "event"
    },
    {
      "anonymous": false,
      "inputs": [
        {
          "indexed": true,
          "internalType": "bytes32",
          "name": "guid",
          "type": "bytes32"
        },
        {
          "indexed": false,
          "internalType": "uint32",
          "name": "srcEid",
          "type": "uint32"
        },
        {
          "indexed": true,
          "internalType": "address",
          "name": "toAddress",
          "type": "address"
        },
        {
          "indexed": false,
          "internalType": "uint256",
          "name": "amountReceivedLD",
          "type": "uint256"
        }
      ],
      "name": "OFTReceived",
      "type": "event"
    },
    {
      "anonymous": false,
      "inputs": [
        {
          "indexed": true,
          "internalType": "bytes32",
          "name": "guid",
          "type": "bytes32"
        },
        {
          "indexed": false,
          "internalType": "uint32",
          "name": "dstEid",
          "type": "uint32"
        },
        {
          "indexed": true,
          "internalType": "address",
          "name": "fromAddress",
          "type": "address"
        },
        {
          "indexed": false,
          "internalType": "uint256",
          "name": "amountSentLD",
          "type": "uint256"
        },
        {
          "indexed": false,
          "internalType": "uint256",
          "name": "amountReceivedLD",
          "type": "uint256"
        }
      ],
      "name": "OFTSent",
      "type": "event"
    },
    {
      "anonymous": false,
      "inputs": [
        {
          "indexed": true,
          "internalType": "address",
          "name": "previousOwner",
          "type": "address"
        },
        {
          "indexed": true,
          "internalType": "address",
          "name": "newOwner",
          "type": "address"
        }
      ],
      "name": "OwnershipTransferred",
      "type": "event"
    },
    {
      "anonymous": false,
      "inputs": [
        {
          "indexed": false,
          "internalType": "uint32",
          "name": "eid",
          "type": "uint32"
        },
        {
          "indexed": false,
          "internalType": "bytes32",
          "name": "peer",
          "type": "bytes32"
        }
      ],
      "name": "PeerSet",
      "type": "event"
    },
    {
      "anonymous": false,
      "inputs": [
        {
          "indexed": false,
          "internalType": "address",
          "name": "preCrimeAddress",
          "type": "address"
        }
      ],
      "name": "PreCrimeSet",
      "type": "event"
    },
    {
      "anonymous": false,
      "inputs": [
        {
          "indexed": true,
          "internalType": "address",
          "name": "from",
          "type": "address"
        },
        {
          "indexed": true,
          "internalType": "address",
          "name": "to",
          "type": "address"
        },
        {
          "indexed": false,
          "internalType": "uint256",
          "name": "value",
          "type": "uint256"
        }
      ],
      "name": "Transfer",
      "type": "event"
    },
    {
      "inputs": [],
      "name": "SEND",
      "outputs": [
        {
          "internalType": "uint16",
          "name": "",
          "type": "uint16"
        }
      ],
      "stateMutability": "view",
      "type": "function"
    },
    {
      "inputs": [],
      "name": "SEND_AND_CALL",
      "outputs": [
        {
          "internalType": "uint16",
          "name": "",
          "type": "uint16"
        }
      ],
      "stateMutability": "view",
      "type": "function"
    },
    {
      "inputs": [
        {
          "components": [
            {
              "internalType": "uint32",
              "name": "srcEid",
              "type": "uint32"
            },
            {
              "internalType": "bytes32",
              "name": "sender",
              "type": "bytes32"
            },
            {
              "internalType": "uint64",
              "name": "nonce",
              "type": "uint64"
            }
          ],
          "internalType": "struct Origin",
          "name": "origin",
          "type": "tuple"
        }
      ],
      "name": "allowInitializePath",
      "outputs": [
        {
          "internalType": "bool",
          "name": "",
          "type": "bool"
        }
      ],
      "stateMutability": "view",
      "type": "function"
    },
    {
      "inputs": [
        {
          "internalType": "address",
          "name": "owner",
          "type": "address"
        },
        {
          "internalType": "address",
          "name": "spender",
          "type": "address"
        }
      ],
      "name": "allowance",
      "outputs": [
        {
          "internalType": "uint256",
          "name": "",
          "type": "uint256"
        }
      ],
      "stateMutability": "view",
      "type": "function"
    },
    {
      "inputs": [],
      "name": "approvalRequired",
      "outputs": [
        {
          "internalType": "bool",
          "name": "",
          "type": "bool"
        }
      ],
      "stateMutability": "pure",
      "type": "function"
    },
    {
      "inputs": [
        {
          "internalType": "address",
          "name": "spender",
          "type": "address"
        },
        {
          "internalType": "uint256",
          "name": "value",
          "type": "uint256"
        }
      ],
      "name": "approve",
      "outputs": [
        {
          "internalType": "bool",
          "name": "",
          "type": "bool"
        }
      ],
      "stateMutability": "nonpayable",
      "type": "function"
    },
    {
      "inputs": [
        {
          "internalType": "address",
          "name": "account",
          "type": "address"
        }
      ],
      "name": "balanceOf",
      "outputs": [
        {
          "internalType": "uint256",
          "name": "",
          "type": "uint256"
        }
      ],
      "stateMutability": "view",
      "type": "function"
    },
    {
      "inputs": [
        {
          "internalType": "uint32",
          "name": "_eid",
          "type": "uint32"
        },
        {
          "internalType": "uint16",
          "name": "_msgType",
          "type": "uint16"
        },
        {
          "internalType": "bytes",
          "name": "_extraOptions",
          "type": "bytes"
        }
      ],
      "name": "combineOptions",
      "outputs": [
        {
          "internalType": "bytes",
          "name": "",
          "type": "bytes"
        }
      ],
      "stateMutability": "view",
      "type": "function"
    },
    {
      "inputs": [],
      "name": "decimalConversionRate",
      "outputs": [
        {
          "internalType": "uint256",
          "name": "",
          "type": "uint256"
        }
      ],
      "stateMutability": "view",
      "type": "function"
    },
    {
      "inputs": [],
      "name": "decimals",
      "outputs": [
        {
          "internalType": "uint8",
          "name": "",
          "type": "uint8"
        }
      ],
      "stateMutability": "view",
      "type": "function"
    },
    {
      "inputs": [],
      "name": "endpoint",
      "outputs": [
        {
          "internalType": "contract ILayerZeroEndpointV2",
          "name": "",
          "type": "address"
        }
      ],
      "stateMutability": "view",
      "type": "function"
    },
    {
      "inputs": [
        {
          "internalType": "uint32",
          "name": "eid",
          "type": "uint32"
        },
        {
          "internalType": "uint16",
          "name": "msgType",
          "type": "uint16"
        }
      ],
      "name": "enforcedOptions",
      "outputs": [
        {
          "internalType": "bytes",
          "name": "enforcedOption",
          "type": "bytes"
        }
      ],
      "stateMutability": "view",
      "type": "function"
    },
    {
      "inputs": [
        {
          "components": [
            {
              "internalType": "uint32",
              "name": "srcEid",
              "type": "uint32"
            },
            {
              "internalType": "bytes32",
              "name": "sender",
              "type": "bytes32"
            },
            {
              "internalType": "uint64",
              "name": "nonce",
              "type": "uint64"
            }
          ],
          "internalType": "struct Origin",
          "name": "",
          "type": "tuple"
        },
        {
          "internalType": "bytes",
          "name": "",
          "type": "bytes"
        },
        {
          "internalType": "address",
          "name": "_sender",
          "type": "address"
        }
      ],
      "name": "isComposeMsgSender",
      "outputs": [
        {
          "internalType": "bool",
          "name": "",
          "type": "bool"
        }
      ],
      "stateMutability": "view",
      "type": "function"
    },
    {
      "inputs": [
        {
          "internalType": "uint32",
          "name": "_eid",
          "type": "uint32"
        },
        {
          "internalType": "bytes32",
          "name": "_peer",
          "type": "bytes32"
        }
      ],
      "name": "isPeer",
      "outputs": [
        {
          "internalType": "bool",
          "name": "",
          "type": "bool"
        }
      ],
      "stateMutability": "view",
      "type": "function"
    },
    {
      "inputs": [
        {
          "components": [
            {
              "internalType": "uint32",
              "name": "srcEid",
              "type": "uint32"
            },
            {
              "internalType": "bytes32",
              "name": "sender",
              "type": "bytes32"
            },
            {
              "internalType": "uint64",
              "name": "nonce",
              "type": "uint64"
            }
          ],
          "internalType": "struct Origin",
          "name": "_origin",
          "type": "tuple"
        },
        {
          "internalType": "bytes32",
          "name": "_guid",
          "type": "bytes32"
        },
        {
          "internalType": "bytes",
          "name": "_message",
          "type": "bytes"
        },
        {
          "internalType": "address",
          "name": "_executor",
          "type": "address"
        },
        {
          "internalType": "bytes",
          "name": "_extraData",
          "type": "bytes"
        }
      ],
      "name": "lzReceive",
      "outputs": [],
      "stateMutability": "payable",
      "type": "function"
    },
    {
      "inputs": [
        {
          "components": [
            {
              "components": [
                {
                  "internalType": "uint32",
                  "name": "srcEid",
                  "type": "uint32"
                },
                {
                  "internalType": "bytes32",
                  "name": "sender",
                  "type": "bytes32"
                },
                {
                  "internalType": "uint64",
                  "name": "nonce",
                  "type": "uint64"
                }
              ],
              "internalType": "struct Origin",
              "name": "origin",
              "type": "tuple"
            },
            {
              "internalType": "uint32",
              "name": "dstEid",
              "type": "uint32"
            },
            {
              "internalType": "address",
              "name": "receiver",
              "type": "address"
            },
            {
              "internalType": "bytes32",
              "name": "guid",
              "type": "bytes32"
            },
            {
              "internalType": "uint256",
              "name": "value",
              "type": "uint256"
            },
            {
              "internalType": "address",
              "name": "executor",
              "type": "address"
            },
            {
              "internalType": "bytes",
              "name": "message",
              "type": "bytes"
            },
            {
              "internalType": "bytes",
              "name": "extraData",
              "type": "bytes"
            }
          ],
          "internalType": "struct InboundPacket[]",
          "name": "_packets",
          "type": "tuple[]"
        }
      ],
      "name": "lzReceiveAndRevert",
      "outputs": [],
      "stateMutability": "payable",
      "type": "function"
    },
    {
      "inputs": [
        {
          "components": [
            {
              "internalType": "uint32",
              "name": "srcEid",
              "type": "uint32"
            },
            {
              "internalType": "bytes32",
              "name": "sender",
              "type": "bytes32"
            },
            {
              "internalType": "uint64",
              "name": "nonce",
              "type": "uint64"
            }
          ],
          "internalType": "struct Origin",
          "name": "_origin",
          "type": "tuple"
        },
        {
          "internalType": "bytes32",
          "name": "_guid",
          "type": "bytes32"
        },
        {
          "internalType": "bytes",
          "name": "_message",
          "type": "bytes"
        },
        {
          "internalType": "address",
          "name": "_executor",
          "type": "address"
        },
        {
          "internalType": "bytes",
          "name": "_extraData",
          "type": "bytes"
        }
      ],
      "name": "lzReceiveSimulate",
      "outputs": [],
      "stateMutability": "payable",
      "type": "function"
    },
    {
      "inputs": [
        {
          "internalType": "address",
          "name": "_to",
          "type": "address"
        },
        {
          "internalType": "uint256",
          "name": "_amount",
          "type": "uint256"
        }
      ],
      "name": "mint",
      "outputs": [],
      "stateMutability": "nonpayable",
      "type": "function"
    },
    {
      "inputs": [
        {
          "internalType": "uint256",
          "name": "amount",
          "type": "uint256"
        },
        {
          "internalType": "address",
          "name": "to",
          "type": "address"
        }
      ],
      "name": "mint",
      "outputs": [],
      "stateMutability": "nonpayable",
      "type": "function"
    },
    {
      "inputs": [],
      "name": "msgInspector",
      "outputs": [
        {
          "internalType": "address",
          "name": "",
          "type": "address"
        }
      ],
      "stateMutability": "view",
      "type": "function"
    },
    {
      "inputs": [],
      "name": "name",
      "outputs": [
        {
          "internalType": "string",
          "name": "",
          "type": "string"
        }
      ],
      "stateMutability": "view",
      "type": "function"
    },
    {
      "inputs": [
        {
          "internalType": "uint32",
          "name": "",
          "type": "uint32"
        },
        {
          "internalType": "bytes32",
          "name": "",
          "type": "bytes32"
        }
      ],
      "name": "nextNonce",
      "outputs": [
        {
          "internalType": "uint64",
          "name": "nonce",
          "type": "uint64"
        }
      ],
      "stateMutability": "view",
      "type": "function"
    },
    {
      "inputs": [],
      "name": "oApp",
      "outputs": [
        {
          "internalType": "address",
          "name": "",
          "type": "address"
        }
      ],
      "stateMutability": "view",
      "type": "function"
    },
    {
      "inputs": [],
      "name": "oAppVersion",
      "outputs": [
        {
          "internalType": "uint64",
          "name": "senderVersion",
          "type": "uint64"
        },
        {
          "internalType": "uint64",
          "name": "receiverVersion",
          "type": "uint64"
        }
      ],
      "stateMutability": "pure",
      "type": "function"
    },
    {
      "inputs": [],
      "name": "oftVersion",
      "outputs": [
        {
          "internalType": "bytes4",
          "name": "interfaceId",
          "type": "bytes4"
        },
        {
          "internalType": "uint64",
          "name": "version",
          "type": "uint64"
        }
      ],
      "stateMutability": "pure",
      "type": "function"
    },
    {
      "inputs": [],
      "name": "owner",
      "outputs": [
        {
          "internalType": "address",
          "name": "",
          "type": "address"
        }
      ],
      "stateMutability": "view",
      "type": "function"
    },
    {
      "inputs": [
        {
          "internalType": "uint32",
          "name": "eid",
          "type": "uint32"
        }
      ],
      "name": "peers",
      "outputs": [
        {
          "internalType": "bytes32",
          "name": "peer",
          "type": "bytes32"
        }
      ],
      "stateMutability": "view",
      "type": "function"
    },
    {
      "inputs": [],
      "name": "preCrime",
      "outputs": [
        {
          "internalType": "address",
          "name": "",
          "type": "address"
        }
      ],
      "stateMutability": "view",
      "type": "function"
    },
    {
      "inputs": [
        {
          "components": [
            {
              "internalType": "uint32",
              "name": "dstEid",
              "type": "uint32"
            },
            {
              "internalType": "bytes32",
              "name": "to",
              "type": "bytes32"
            },
            {
              "internalType": "uint256",
              "name": "amountLD",
              "type": "uint256"
            },
            {
              "internalType": "uint256",
              "name": "minAmountLD",
              "type": "uint256"
            },
            {
              "internalType": "bytes",
              "name": "extraOptions",
              "type": "bytes"
            },
            {
              "internalType": "bytes",
              "name": "composeMsg",
              "type": "bytes"
            },
            {
              "internalType": "bytes",
              "name": "oftCmd",
              "type": "bytes"
            }
          ],
          "internalType": "struct SendParam",
          "name": "_sendParam",
          "type": "tuple"
        }
      ],
      "name": "quoteOFT",
      "outputs": [
        {
          "components": [
            {
              "internalType": "uint256",
              "name": "minAmountLD",
              "type": "uint256"
            },
            {
              "internalType": "uint256",
              "name": "maxAmountLD",
              "type": "uint256"
            }
          ],
          "internalType": "struct OFTLimit",
          "name": "oftLimit",
          "type": "tuple"
        },
        {
          "components": [
            {
              "internalType": "int256",
              "name": "feeAmountLD",
              "type": "int256"
            },
            {
              "internalType": "string",
              "name": "description",
              "type": "string"
            }
          ],
          "internalType": "struct OFTFeeDetail[]",
          "name": "oftFeeDetails",
          "type": "tuple[]"
        },
        {
          "components": [
            {
              "internalType": "uint256",
              "name": "amountSentLD",
              "type": "uint256"
            },
            {
              "internalType": "uint256",
              "name": "amountReceivedLD",
              "type": "uint256"
            }
          ],
          "internalType": "struct OFTReceipt",
          "name": "oftReceipt",
          "type": "tuple"
        }
      ],
      "stateMutability": "view",
      "type": "function"
    },
    {
      "inputs": [
        {
          "components": [
            {
              "internalType": "uint32",
              "name": "dstEid",
              "type": "uint32"
            },
            {
              "internalType": "bytes32",
              "name": "to",
              "type": "bytes32"
            },
            {
              "internalType": "uint256",
              "name": "amountLD",
              "type": "uint256"
            },
            {
              "internalType": "uint256",
              "name": "minAmountLD",
              "type": "uint256"
            },
            {
              "internalType": "bytes",
              "name": "extraOptions",
              "type": "bytes"
            },
            {
              "internalType": "bytes",
              "name": "composeMsg",
              "type": "bytes"
            },
            {
              "internalType": "bytes",
              "name": "oftCmd",
              "type": "bytes"
            }
          ],
          "internalType": "struct SendParam",
          "name": "_sendParam",
          "type": "tuple"
        },
        {
          "internalType": "bool",
          "name": "_payInLzToken",
          "type": "bool"
        }
      ],
      "name": "quoteSend",
      "outputs": [
        {
          "components": [
            {
              "internalType": "uint256",
              "name": "nativeFee",
              "type": "uint256"
            },
            {
              "internalType": "uint256",
              "name": "lzTokenFee",
              "type": "uint256"
            }
          ],
          "internalType": "struct MessagingFee",
          "name": "msgFee",
          "type": "tuple"
        }
      ],
      "stateMutability": "view",
      "type": "function"
    },
    {
      "inputs": [],
      "name": "renounceOwnership",
      "outputs": [],
      "stateMutability": "nonpayable",
      "type": "function"
    },
    {
      "inputs": [
        {
          "components": [
            {
              "internalType": "uint32",
              "name": "dstEid",
              "type": "uint32"
            },
            {
              "internalType": "bytes32",
              "name": "to",
              "type": "bytes32"
            },
            {
              "internalType": "uint256",
              "name": "amountLD",
              "type": "uint256"
            },
            {
              "internalType": "uint256",
              "name": "minAmountLD",
              "type": "uint256"
            },
            {
              "internalType": "bytes",
              "name": "extraOptions",
              "type": "bytes"
            },
            {
              "internalType": "bytes",
              "name": "composeMsg",
              "type": "bytes"
            },
            {
              "internalType": "bytes",
              "name": "oftCmd",
              "type": "bytes"
            }
          ],
          "internalType": "struct SendParam",
          "name": "_sendParam",
          "type": "tuple"
        },
        {
          "components": [
            {
              "internalType": "uint256",
              "name": "nativeFee",
              "type": "uint256"
            },
            {
              "internalType": "uint256",
              "name": "lzTokenFee",
              "type": "uint256"
            }
          ],
          "internalType": "struct MessagingFee",
          "name": "_fee",
          "type": "tuple"
        },
        {
          "internalType": "address",
          "name": "_refundAddress",
          "type": "address"
        }
      ],
      "name": "send",
      "outputs": [
        {
          "components": [
            {
              "internalType": "bytes32",
              "name": "guid",
              "type": "bytes32"
            },
            {
              "internalType": "uint64",
              "name": "nonce",
              "type": "uint64"
            },
            {
              "components": [
                {
                  "internalType": "uint256",
                  "name": "nativeFee",
                  "type": "uint256"
                },
                {
                  "internalType": "uint256",
                  "name": "lzTokenFee",
                  "type": "uint256"
                }
              ],
              "internalType": "struct MessagingFee",
              "name": "fee",
              "type": "tuple"
            }
          ],
          "internalType": "struct MessagingReceipt",
          "name": "msgReceipt",
          "type": "tuple"
        },
        {
          "components": [
            {
              "internalType": "uint256",
              "name": "amountSentLD",
              "type": "uint256"
            },
            {
              "internalType": "uint256",
              "name": "amountReceivedLD",
              "type": "uint256"
            }
          ],
          "internalType": "struct OFTReceipt",
          "name": "oftReceipt",
          "type": "tuple"
        }
      ],
      "stateMutability": "payable",
      "type": "function"
    },
    {
      "inputs": [
        {
          "internalType": "address",
          "name": "_delegate",
          "type": "address"
        }
      ],
      "name": "setDelegate",
      "outputs": [],
      "stateMutability": "nonpayable",
      "type": "function"
    },
    {
      "inputs": [
        {
          "components": [
            {
              "internalType": "uint32",
              "name": "eid",
              "type": "uint32"
            },
            {
              "internalType": "uint16",
              "name": "msgType",
              "type": "uint16"
            },
            {
              "internalType": "bytes",
              "name": "options",
              "type": "bytes"
            }
          ],
          "internalType": "struct EnforcedOptionParam[]",
          "name": "_enforcedOptions",
          "type": "tuple[]"
        }
      ],
      "name": "setEnforcedOptions",
      "outputs": [],
      "stateMutability": "nonpayable",
      "type": "function"
    },
    {
      "inputs": [
        {
          "internalType": "address",
          "name": "_msgInspector",
          "type": "address"
        }
      ],
      "name": "setMsgInspector",
      "outputs": [],
      "stateMutability": "nonpayable",
      "type": "function"
    },
    {
      "inputs": [
        {
          "internalType": "uint32",
          "name": "_eid",
          "type": "uint32"
        },
        {
          "internalType": "bytes32",
          "name": "_peer",
          "type": "bytes32"
        }
      ],
      "name": "setPeer",
      "outputs": [],
      "stateMutability": "nonpayable",
      "type": "function"
    },
    {
      "inputs": [
        {
          "internalType": "address",
          "name": "_preCrime",
          "type": "address"
        }
      ],
      "name": "setPreCrime",
      "outputs": [],
      "stateMutability": "nonpayable",
      "type": "function"
    },
    {
      "inputs": [],
      "name": "sharedDecimals",
      "outputs": [
        {
          "internalType": "uint8",
          "name": "",
          "type": "uint8"
        }
      ],
      "stateMutability": "view",
      "type": "function"
    },
    {
      "inputs": [],
      "name": "symbol",
      "outputs": [
        {
          "internalType": "string",
          "name": "",
          "type": "string"
        }
      ],
      "stateMutability": "view",
      "type": "function"
    },
    {
      "inputs": [],
      "name": "token",
      "outputs": [
        {
          "internalType": "address",
          "name": "",
          "type": "address"
        }
      ],
      "stateMutability": "view",
      "type": "function"
    },
    {
      "inputs": [],
      "name": "totalSupply",
      "outputs": [
        {
          "internalType": "uint256",
          "name": "",
          "type": "uint256"
        }
      ],
      "stateMutability": "view",
      "type": "function"
    },
    {
      "inputs": [
        {
          "internalType": "address",
          "name": "to",
          "type": "address"
        },
        {
          "internalType": "uint256",
          "name": "value",
          "type": "uint256"
        }
      ],
      "name": "transfer",
      "outputs": [
        {
          "internalType": "bool",
          "name": "",
          "type": "bool"
        }
      ],
      "stateMutability": "nonpayable",
      "type": "function"
    },
    {
      "inputs": [
        {
          "internalType": "address",
          "name": "from",
          "type": "address"
        },
        {
          "internalType": "address",
          "name": "to",
          "type": "address"
        },
        {
          "internalType": "uint256",
          "name": "value",
          "type": "uint256"
        }
      ],
      "name": "transferFrom",
      "outputs": [
        {
          "internalType": "bool",
          "name": "",
          "type": "bool"
        }
      ],
      "stateMutability": "nonpayable",
      "type": "function"
    },
    {
      "inputs": [
        {
          "internalType": "address",
          "name": "newOwner",
          "type": "address"
        }
      ],
      "name": "transferOwnership",
      "outputs": [],
      "stateMutability": "nonpayable",
      "type": "function"
    }
  ],
  "bytecode": "0x60c06040523480156200001157600080fd5b50604051620037cb380380620037cb8339810160408190526200003491620002da565b8383838383838383838360128484818181818d6001600160a01b0381166200007657604051631e4fbdf760e01b81526000600482015260240160405180910390fd5b6200008181620001a0565b506001600160a01b038083166080528116620000b057604051632d618d8160e21b815260040160405180910390fd5b60805160405163ca5eb5e160e01b81526001600160a01b0383811660048301529091169063ca5eb5e190602401600060405180830381600087803b158015620000f857600080fd5b505af11580156200010d573d6000803e3d6000fd5b505050505050505062000125620001f060201b60201c565b60ff168360ff1610156200014c576040516301e9714b60e41b815260040160405180910390fd5b620001596006846200037f565b6200016690600a6200049e565b60a05250600891506200017c9050838262000547565b5060096200018b828262000547565b50505050505050505050505050505062000613565b600080546001600160a01b038381166001600160a01b0319831681178455604051919092169283917f8be0079c531659141344cd1fd0a4f28419497f9722a3daafe3b4186f6b6457e09190a35050565b600690565b634e487b7160e01b600052604160045260246000fd5b600082601f8301126200021d57600080fd5b81516001600160401b03808211156200023a576200023a620001f5565b604051601f8301601f19908116603f01168101908282118183101715620002655762000265620001f5565b81604052838152602092508660208588010111156200028357600080fd5b600091505b83821015620002a7578582018301518183018401529082019062000288565b6000602085830101528094505050505092915050565b80516001600160a01b0381168114620002d557600080fd5b919050565b60008060008060808587031215620002f157600080fd5b84516001600160401b03808211156200030957600080fd5b62000317888389016200020b565b955060208701519150808211156200032e57600080fd5b506200033d878288016200020b565b9350506200034e60408601620002bd565b91506200035e60608601620002bd565b905092959194509250565b634e487b7160e01b600052601160045260246000fd5b60ff82811682821603908111156200039b576200039b62000369565b92915050565b600181815b80851115620003e2578160001904821115620003c657620003c662000369565b80851615620003d457918102915b93841c9390800290620003a6565b509250929050565b600082620003fb575060016200039b565b816200040a575060006200039b565b81600181146200042357600281146200042e576200044e565b60019150506200039b565b60ff84111562000442576200044262000369565b50506001821b6200039b565b5060208310610133831016604e8410600b841016171562000473575081810a6200039b565b6200047f8383620003a1565b806000190482111562000496576200049662000369565b029392505050565b6000620004af60ff841683620003ea565b9392505050565b600181811c90821680620004cb57607f821691505b602082108103620004ec57634e487b7160e01b600052602260045260246000fd5b50919050565b601f82111562000542576000816000526020600020601f850160051c810160208610156200051d5750805b601f850160051c820191505b818110156200053e5782815560010162000529565b5050505b505050565b81516001600160401b03811115620005635762000563620001f5565b6200057b81620005748454620004b6565b84620004f2565b602080601f831160018114620005b357600084156200059a5750858301515b600019600386901b1c1916600185901b1785556200053e565b600085815260208120601f198616915b82811015620005e457888601518255948401946001909101908401620005c3565b5085821015620006035787850151600019600388901b60f8161c191681555b5050505050600190811b01905550565b60805160a05161314c6200067f6000396000818161067401528181611b8601528181611bfb0152611dff015260008181610513015281816109e30152818161110e0152818161138d015281816116f8015281816119d501528181611f000152611fb7015261314c6000f3fe6080604052600436106102675760003560e01c80637d25a05e11610144578063bb0b6a53116100b6578063d045a0dc1161007a578063d045a0dc146107ab578063d4243885146107be578063dd62ed3e146107de578063f2fde38b14610824578063fc0c546a14610497578063ff7bd03d1461084457600080fd5b8063bb0b6a531461070a578063bc70b35414610737578063bd815db014610757578063c7c7f5b31461076a578063ca5eb5e11461078b57600080fd5b806395d89b411161010857806395d89b411461064d578063963efcaa146106625780639f68b96414610696578063a9059cbb146106aa578063b731ea0a146106ca578063b98bd070146106ea57600080fd5b80637d25a05e146105a057806382413eac146105db578063857749b0146105fb5780638da5cb5b1461060f57806394bf804d1461062d57600080fd5b8063313ce567116101dd5780635535d461116101a15780635535d461146104aa5780635a0dfe4d146104ca5780635e280f11146105015780636fc1b31e1461053557806370a0823114610555578063715018a61461058b57600080fd5b8063313ce567146104085780633400288b1461042a5780633b6f743b1461044a57806340c10f191461047757806352ae28791461049757600080fd5b8063134d4f251161022f578063134d4f2514610343578063156a0d0f1461036b57806317442b701461039257806318160ddd146103b45780631f5e1334146103d357806323b872dd146103e857600080fd5b806306fdde031461026c578063095ea7b3146102975780630d35b415146102c7578063111ecdad146102f657806313137d651461032e575b600080fd5b34801561027857600080fd5b50610281610864565b60405161028e9190612212565b60405180910390f35b3480156102a357600080fd5b506102b76102b236600461223a565b6108f6565b604051901515815260200161028e565b3480156102d357600080fd5b506102e76102e236600461227e565b610910565b60405161028e939291906122b2565b34801561030257600080fd5b50600454610316906001600160a01b031681565b6040516001600160a01b03909116815260200161028e565b61034161033c3660046123a5565b6109e1565b005b34801561034f57600080fd5b50610358600281565b60405161ffff909116815260200161028e565b34801561037757600080fd5b506040805162b9270b60e21b8152600160208201520161028e565b34801561039e57600080fd5b506040805160018152600260208201520161028e565b3480156103c057600080fd5b506007545b60405190815260200161028e565b3480156103df57600080fd5b50610358600181565b3480156103f457600080fd5b506102b7610403366004612444565b610aa1565b34801561041457600080fd5b5060125b60405160ff909116815260200161028e565b34801561043657600080fd5b5061034161044536600461249e565b610ac7565b34801561045657600080fd5b5061046a6104653660046124c8565b610add565b60405161028e9190612519565b34801561048357600080fd5b5061034161049236600461223a565b610b44565b3480156104a357600080fd5b5030610316565b3480156104b657600080fd5b506102816104c5366004612542565b610b4e565b3480156104d657600080fd5b506102b76104e536600461249e565b63ffffffff919091166000908152600160205260409020541490565b34801561050d57600080fd5b506103167f000000000000000000000000000000000000000000000000000000000000000081565b34801561054157600080fd5b50610341610550366004612575565b610bf3565b34801561056157600080fd5b506103c5610570366004612575565b6001600160a01b031660009081526005602052604090205490565b34801561059757600080fd5b50610341610c50565b3480156105ac57600080fd5b506105c36105bb36600461249e565b600092915050565b6040516001600160401b03909116815260200161028e565b3480156105e757600080fd5b506102b76105f6366004612592565b610c64565b34801561060757600080fd5b506006610418565b34801561061b57600080fd5b506000546001600160a01b0316610316565b34801561063957600080fd5b506103416106483660046125f8565b610c79565b34801561065957600080fd5b50610281610c83565b34801561066e57600080fd5b506103c57f000000000000000000000000000000000000000000000000000000000000000081565b3480156106a257600080fd5b5060006102b7565b3480156106b657600080fd5b506102b76106c536600461223a565b610c92565b3480156106d657600080fd5b50600254610316906001600160a01b031681565b3480156106f657600080fd5b50610341610705366004612661565b610ca0565b34801561071657600080fd5b506103c56107253660046126a2565b60016020526000908152604090205481565b34801561074357600080fd5b506102816107523660046126bd565b610cba565b610341610765366004612661565b610e62565b61077d61077836600461271d565b610fec565b60405161028e92919061278a565b34801561079757600080fd5b506103416107a6366004612575565b6110e7565b6103416107b93660046123a5565b61116d565b3480156107ca57600080fd5b506103416107d9366004612575565b61119c565b3480156107ea57600080fd5b506103c56107f93660046127dc565b6001600160a01b03918216600090815260066020908152604080832093909416825291909152205490565b34801561083057600080fd5b5061034161083f366004612575565b6111f2565b34801561085057600080fd5b506102b761085f36600461280a565b611230565b60606008805461087390612826565b80601f016020809104026020016040519081016040528092919081815260200182805461089f90612826565b80156108ec5780601f106108c1576101008083540402835291602001916108ec565b820191906000526020600020905b8154815290600101906020018083116108cf57829003601f168201915b5050505050905090565b600033610904818585611266565b60019150505b92915050565b60408051808201909152600080825260208201526060610943604051806040016040528060008152602001600081525090565b60408051808201825260008082526001600160401b0360208084018290528451838152908101909452919550918261099e565b6040805180820190915260008152606060208201528152602001906001900390816109765790505b5093506000806109c3604089013560608a01356109be60208c018c6126a2565b611278565b60408051808201909152918252602082015296989597505050505050565b7f00000000000000000000000000000000000000000000000000000000000000006001600160a01b03163314610a31576040516391ac5e4f60e01b81523360048201526024015b60405180910390fd5b60208701803590610a4b90610a46908a6126a2565b6112bc565b14610a8957610a5d60208801886126a2565b60405163309afaf360e21b815263ffffffff909116600482015260208801356024820152604401610a28565b610a98878787878787876112f8565b50505050505050565b600033610aaf85828561145f565b610aba8585856114dd565b60019150505b9392505050565b610acf61153c565b610ad98282611569565b5050565b60408051808201909152600080825260208201526000610b0d604085013560608601356109be60208801886126a2565b915050600080610b1d86846115be565b9092509050610b3a610b3260208801886126a2565b8383886116e2565b9695505050505050565b610ad982826117c3565b600360209081526000928352604080842090915290825290208054610b7290612826565b80601f0160208091040260200160405190810160405280929190818152602001828054610b9e90612826565b8015610beb5780601f10610bc057610100808354040283529160200191610beb565b820191906000526020600020905b815481529060010190602001808311610bce57829003601f168201915b505050505081565b610bfb61153c565b600480546001600160a01b0319166001600160a01b0383169081179091556040519081527ff0be4f1e87349231d80c36b33f9e8639658eeaf474014dee15a3e6a4d4414197906020015b60405180910390a150565b610c5861153c565b610c6260006117f9565b565b6001600160a01b03811630145b949350505050565b610ad981836117c3565b60606009805461087390612826565b6000336109048185856114dd565b610ca861153c565b610ad9610cb58284612911565b611849565b63ffffffff8416600090815260036020908152604080832061ffff87168452909152812080546060929190610cee90612826565b80601f0160208091040260200160405190810160405280929190818152602001828054610d1a90612826565b8015610d675780601f10610d3c57610100808354040283529160200191610d67565b820191906000526020600020905b815481529060010190602001808311610d4a57829003601f168201915b505050505090508051600003610db75783838080601f016020809104026020016040519081016040528093929190818152602001838380828437600092019190915250929450610c719350505050565b6000839003610dc7579050610c71565b60028310610e4557610e0e84848080601f01602080910402602001604051908101604052809392919081815260200183838082843760009201919091525061195092505050565b80610e1c8460028188612a26565b604051602001610e2e93929190612a50565b604051602081830303815290604052915050610c71565b8383604051639a6d49cd60e01b8152600401610a28929190612aa1565b60005b81811015610f6b5736838383818110610e8057610e80612ab5565b9050602002810190610e929190612acb565b9050610ec5610ea460208301836126a2565b602083013563ffffffff919091166000908152600160205260409020541490565b610ecf5750610f63565b3063d045a0dc60c08301358360a0810135610eee610100830183612aec565b610eff610100890160e08a01612575565b610f0d6101208a018a612aec565b6040518963ffffffff1660e01b8152600401610f2f9796959493929190612b47565b6000604051808303818588803b158015610f4857600080fd5b505af1158015610f5c573d6000803e3d6000fd5b5050505050505b600101610e65565b50336001600160a01b0316638e9e70996040518163ffffffff1660e01b8152600401600060405180830381865afa158015610faa573d6000803e3d6000fd5b505050506040513d6000823e601f3d908101601f19168201604052610fd29190810190612bcd565b604051638351eea760e01b8152600401610a289190612212565b610ff461217b565b604080518082019091526000808252602082015260008061102b33604089013560608a013561102660208c018c6126a2565b61197c565b9150915060008061103c89846115be565b909250905061106861105160208b018b6126a2565b8383611062368d90038d018d612c3a565b8b6119a2565b60408051808201909152858152602080820186905282519298509096503391907f85496b760a4b7f8d66384b9df21b381f5d1b1e79f229a47aaf4c232edc2fe59a906110b6908d018d6126a2565b6040805163ffffffff909216825260208201899052810187905260600160405180910390a350505050935093915050565b6110ef61153c565b60405163ca5eb5e160e01b81526001600160a01b0382811660048301527f0000000000000000000000000000000000000000000000000000000000000000169063ca5eb5e190602401600060405180830381600087803b15801561115257600080fd5b505af1158015611166573d6000803e3d6000fd5b5050505050565b33301461118d5760405163029a949d60e31b815260040160405180910390fd5b610a9887878787878787610a89565b6111a461153c565b600280546001600160a01b0319166001600160a01b0383169081179091556040519081527fd48d879cef83a1c0bdda516f27b13ddb1b3f8bbac1c9e1511bb2a659c242776090602001610c45565b6111fa61153c565b6001600160a01b03811661122457604051631e4fbdf760e01b815260006004820152602401610a28565b61122d816117f9565b50565b600060208201803590600190839061124890866126a2565b63ffffffff1681526020810191909152604001600020541492915050565b6112738383836001611aad565b505050565b60008061128485611b82565b9150819050838110156112b4576040516371c4efed60e01b81526004810182905260248101859052604401610a28565b935093915050565b63ffffffff81166000908152600160205260408120548061090a5760405163f6ff4fb760e01b815263ffffffff84166004820152602401610a28565b600061130a6113078787611bb9565b90565b905060006113368261132461131f8a8a611bd1565b611bf4565b61133160208d018d6126a2565b611c29565b905060288611156113fd57600061137361135660608c0160408d01612c6c565b61136360208d018d6126a2565b8461136e8c8c611c51565b611c9c565b604051633e5ac80960e11b81529091506001600160a01b037f00000000000000000000000000000000000000000000000000000000000000001690637cb59012906113c99086908d906000908790600401612c89565b600060405180830381600087803b1580156113e357600080fd5b505af11580156113f7573d6000803e3d6000fd5b50505050505b6001600160a01b038216887fefed6d3500546b29533b128a29e3a94d70788727f0507505ac12eaf2e578fd9c61143660208d018d6126a2565b6040805163ffffffff9092168252602082018690520160405180910390a3505050505050505050565b6001600160a01b0383811660009081526006602090815260408083209386168352929052205460001981146114d757818110156114c857604051637dc7a0d960e11b81526001600160a01b03841660048201526024810182905260448101839052606401610a28565b6114d784848484036000611aad565b50505050565b6001600160a01b03831661150757604051634b637e8f60e11b815260006004820152602401610a28565b6001600160a01b0382166115315760405163ec442f0560e01b815260006004820152602401610a28565b611273838383611cce565b6000546001600160a01b03163314610c625760405163118cdaa760e01b8152336004820152602401610a28565b63ffffffff8216600081815260016020908152604091829020849055815192835282018390527f238399d427b947898edb290f5ff0f9109849b1c3ba196a42e35f00c50a54b98b910160405180910390a15050565b606080600061161b85602001356115d486611df8565b6115e160a0890189612aec565b8080601f016020809104026020016040519081016040528093929190818152602001838380828437600092019190915250611e2492505050565b909350905060008161162e576001611631565b60025b905061165161164360208801886126a2565b8261075260808a018a612aec565b6004549093506001600160a01b0316156116d9576004805460405163043a78eb60e01b81526001600160a01b039091169163043a78eb91611696918891889101612cba565b602060405180830381865afa1580156116b3573d6000803e3d6000fd5b505050506040513d601f19601f820116820180604052508101906116d79190612cdf565b505b50509250929050565b60408051808201909152600080825260208201527f00000000000000000000000000000000000000000000000000000000000000006001600160a01b031663ddc28c586040518060a001604052808863ffffffff168152602001611745896112bc565b8152602001878152602001868152602001851515815250306040518363ffffffff1660e01b815260040161177a929190612cfc565b6040805180830381865afa158015611796573d6000803e3d6000fd5b505050506040513d601f19601f820116820180604052508101906117ba9190612da5565b95945050505050565b6001600160a01b0382166117ed5760405163ec442f0560e01b815260006004820152602401610a28565b610ad960008383611cce565b600080546001600160a01b038381166001600160a01b0319831681178455604051919092169283917f8be0079c531659141344cd1fd0a4f28419497f9722a3daafe3b4186f6b6457e09190a35050565b60005b81518110156119205761187b82828151811061186a5761186a612ab5565b602002602001015160400151611950565b81818151811061188d5761188d612ab5565b602002602001015160400151600360008484815181106118af576118af612ab5565b60200260200101516000015163ffffffff1663ffffffff16815260200190815260200160002060008484815181106118e9576118e9612ab5565b60200260200101516020015161ffff1661ffff16815260200190815260200160002090816119179190612e11565b5060010161184c565b507fbe4864a8e820971c0247f5992e2da559595f7bf076a21cb5928d443d2a13b67481604051610c459190612ed0565b600281015161ffff8116600314610ad95781604051639a6d49cd60e01b8152600401610a289190612212565b60008061198a858585611278565b90925090506119998683611e9e565b94509492505050565b6119aa61217b565b60006119b98460000151611ed4565b6020850151909150156119d3576119d38460200151611efc565b7f00000000000000000000000000000000000000000000000000000000000000006001600160a01b0316632637a450826040518060a001604052808b63ffffffff168152602001611a238c6112bc565b81526020018a815260200189815260200160008960200151111515815250866040518463ffffffff1660e01b8152600401611a5f929190612cfc565b60806040518083038185885af1158015611a7d573d6000803e3d6000fd5b50505050506040513d601f19601f82011682018060405250810190611aa29190612f5b565b979650505050505050565b6001600160a01b038416611ad75760405163e602df0560e01b815260006004820152602401610a28565b6001600160a01b038316611b0157604051634a1406b160e11b815260006004820152602401610a28565b6001600160a01b03808516600090815260066020908152604080832093871683529290522082905580156114d757826001600160a01b0316846001600160a01b03167f8c5be1e5ebec7d5bd14f71427d1e84f3dd0314c0f7b2291e5b200ac8c7c3b92584604051611b7491815260200190565b60405180910390a350505050565b60007f0000000000000000000000000000000000000000000000000000000000000000611baf8184612fbb565b61090a9190612fdd565b6000611bc86020828486612a26565b610ac091612ff4565b6000611be1602860208486612a26565b611bea91613012565b60c01c9392505050565b600061090a7f00000000000000000000000000000000000000000000000000000000000000006001600160401b038416612fdd565b60006001600160a01b038416611c3f5761dead93505b611c4984846117c3565b509092915050565b6060611c608260288186612a26565b8080601f016020809104026020016040519081016040528093929190818152602001838380828437600092019190915250929695505050505050565b606084848484604051602001611cb59493929190613042565b6040516020818303038152906040529050949350505050565b6001600160a01b038316611cf9578060076000828254611cee9190613091565b90915550611d6b9050565b6001600160a01b03831660009081526005602052604090205481811015611d4c5760405163391434e360e21b81526001600160a01b03851660048201526024810182905260448101839052606401610a28565b6001600160a01b03841660009081526005602052604090209082900390555b6001600160a01b038216611d8757600780548290039055611da6565b6001600160a01b03821660009081526005602052604090208054820190555b816001600160a01b0316836001600160a01b03167fddf252ad1be2c89b69c2b068fc378daa952ba7f163c4a11628f55a4df523b3ef83604051611deb91815260200190565b60405180910390a3505050565b600061090a7f000000000000000000000000000000000000000000000000000000000000000083612fbb565b8051606090151580611e6d578484604051602001611e5992919091825260c01b6001600160c01b031916602082015260280190565b604051602081830303815290604052611e94565b84843385604051602001611e8494939291906130a4565b6040516020818303038152906040525b9150935093915050565b6001600160a01b038216611ec857604051634b637e8f60e11b815260006004820152602401610a28565b610ad982600083611cce565b6000813414611ef8576040516304fb820960e51b8152346004820152602401610a28565b5090565b60007f00000000000000000000000000000000000000000000000000000000000000006001600160a01b031663e4fe1d946040518163ffffffff1660e01b8152600401602060405180830381865afa158015611f5c573d6000803e3d6000fd5b505050506040513d601f19601f82011682018060405250810190611f8091906130e7565b90506001600160a01b038116611fa9576040516329b99a9560e11b815260040160405180910390fd5b6040805133602482018190527f00000000000000000000000000000000000000000000000000000000000000006001600160a01b03818116604485015260648085018890528551808603909101815260849094019094526020830180516001600160e01b03166323b872dd60e01b179052610ad99385169286906114d790859060006120358383612083565b9050805160001415801561205a5750808060200190518101906120589190612cdf565b155b1561127357604051635274afe760e01b81526001600160a01b0384166004820152602401610a28565b6060610ac08383600084600080856001600160a01b031684866040516120a99190613104565b60006040518083038185875af1925050503d80600081146120e6576040519150601f19603f3d011682016040523d82523d6000602084013e6120eb565b606091505b5091509150610b3a86838360608261210b5761210682612152565b610ac0565b815115801561212257506001600160a01b0384163b155b1561214b57604051639996b31560e01b81526001600160a01b0385166004820152602401610a28565b5080610ac0565b8051156121625780518082602001fd5b604051630a12f52160e11b815260040160405180910390fd5b60405180606001604052806000801916815260200160006001600160401b031681526020016121bd604051806040016040528060008152602001600081525090565b905290565b60005b838110156121dd5781810151838201526020016121c5565b50506000910152565b600081518084526121fe8160208601602086016121c2565b601f01601f19169290920160200192915050565b602081526000610ac060208301846121e6565b6001600160a01b038116811461122d57600080fd5b6000806040838503121561224d57600080fd5b823561225881612225565b946020939093013593505050565b600060e0828403121561227857600080fd5b50919050565b60006020828403121561229057600080fd5b81356001600160401b038111156122a657600080fd5b610c7184828501612266565b8351815260208085015190820152600060a08201604060a0604085015281865180845260c08601915060c08160051b8701019350602080890160005b8381101561232d5788870360bf1901855281518051885283015183880187905261231a878901826121e6565b97505093820193908201906001016122ee565b50508751606088015250505060208501516080850152509050610c71565b60006060828403121561227857600080fd5b60008083601f84011261236f57600080fd5b5081356001600160401b0381111561238657600080fd5b60208301915083602082850101111561239e57600080fd5b9250929050565b600080600080600080600060e0888a0312156123c057600080fd5b6123ca898961234b565b96506060880135955060808801356001600160401b03808211156123ed57600080fd5b6123f98b838c0161235d565b909750955060a08a0135915061240e82612225565b90935060c0890135908082111561242457600080fd5b506124318a828b0161235d565b989b979a50959850939692959293505050565b60008060006060848603121561245957600080fd5b833561246481612225565b9250602084013561247481612225565b929592945050506040919091013590565b803563ffffffff8116811461249957600080fd5b919050565b600080604083850312156124b157600080fd5b61225883612485565b801515811461122d57600080fd5b600080604083850312156124db57600080fd5b82356001600160401b038111156124f157600080fd5b6124fd85828601612266565b925050602083013561250e816124ba565b809150509250929050565b81518152602080830151908201526040810161090a565b803561ffff8116811461249957600080fd5b6000806040838503121561255557600080fd5b61255e83612485565b915061256c60208401612530565b90509250929050565b60006020828403121561258757600080fd5b8135610ac081612225565b60008060008060a085870312156125a857600080fd5b6125b2868661234b565b935060608501356001600160401b038111156125cd57600080fd5b6125d98782880161235d565b90945092505060808501356125ed81612225565b939692955090935050565b6000806040838503121561260b57600080fd5b82359150602083013561250e81612225565b60008083601f84011261262f57600080fd5b5081356001600160401b0381111561264657600080fd5b6020830191508360208260051b850101111561239e57600080fd5b6000806020838503121561267457600080fd5b82356001600160401b0381111561268a57600080fd5b6126968582860161261d565b90969095509350505050565b6000602082840312156126b457600080fd5b610ac082612485565b600080600080606085870312156126d357600080fd5b6126dc85612485565b93506126ea60208601612530565b925060408501356001600160401b0381111561270557600080fd5b6127118782880161235d565b95989497509550505050565b6000806000838503608081121561273357600080fd5b84356001600160401b0381111561274957600080fd5b61275587828801612266565b9450506040601f198201121561276a57600080fd5b50602084019150606084013561277f81612225565b809150509250925092565b600060c082019050835182526001600160401b03602085015116602083015260408401516127c5604084018280518252602090810151910152565b5082516080830152602083015160a0830152610ac0565b600080604083850312156127ef57600080fd5b82356127fa81612225565b9150602083013561250e81612225565b60006060828403121561281c57600080fd5b610ac0838361234b565b600181811c9082168061283a57607f821691505b60208210810361227857634e487b7160e01b600052602260045260246000fd5b634e487b7160e01b600052604160045260246000fd5b604051606081016001600160401b03811182821017156128925761289261285a565b60405290565b604080519081016001600160401b03811182821017156128925761289261285a565b604051601f8201601f191681016001600160401b03811182821017156128e2576128e261285a565b604052919050565b60006001600160401b038211156129035761290361285a565b50601f01601f191660200190565b60006001600160401b038084111561292b5761292b61285a565b8360051b602061293c8183016128ba565b86815291850191818101903684111561295457600080fd5b865b84811015612a1a5780358681111561296e5760008081fd5b880160603682900312156129825760008081fd5b61298a612870565b61299382612485565b81526129a0868301612530565b86820152604080830135898111156129b85760008081fd5b929092019136601f8401126129cd5760008081fd5b82356129e06129db826128ea565b6128ba565b81815236898387010111156129f55760008081fd5b818986018a830137600091810189019190915290820152845250918301918301612956565b50979650505050505050565b60008085851115612a3657600080fd5b83861115612a4357600080fd5b5050820193919092039150565b60008451612a628184602089016121c2565b8201838582376000930192835250909392505050565b81835281816020850137506000828201602090810191909152601f909101601f19169091010190565b602081526000610c71602083018486612a78565b634e487b7160e01b600052603260045260246000fd5b6000823561013e19833603018112612ae257600080fd5b9190910192915050565b6000808335601e19843603018112612b0357600080fd5b8301803591506001600160401b03821115612b1d57600080fd5b60200191503681900382131561239e57600080fd5b6001600160401b038116811461122d57600080fd5b63ffffffff612b5589612485565b1681526020880135602082015260006040890135612b7281612b32565b6001600160401b03811660408401525087606083015260e06080830152612b9d60e083018789612a78565b6001600160a01b03861660a084015282810360c0840152612bbf818587612a78565b9a9950505050505050505050565b600060208284031215612bdf57600080fd5b81516001600160401b03811115612bf557600080fd5b8201601f81018413612c0657600080fd5b8051612c146129db826128ea565b818152856020838501011115612c2957600080fd5b6117ba8260208301602086016121c2565b600060408284031215612c4c57600080fd5b612c54612898565b82358152602083013560208201528091505092915050565b600060208284031215612c7e57600080fd5b8135610ac081612b32565b60018060a01b038516815283602082015261ffff83166040820152608060608201526000610b3a60808301846121e6565b604081526000612ccd60408301856121e6565b82810360208401526117ba81856121e6565b600060208284031215612cf157600080fd5b8151610ac0816124ba565b6040815263ffffffff8351166040820152602083015160608201526000604084015160a06080840152612d3260e08401826121e6565b90506060850151603f198483030160a0850152612d4f82826121e6565b60809690960151151560c08501525050506001600160a01b039190911660209091015290565b600060408284031215612d8757600080fd5b612d8f612898565b9050815181526020820151602082015292915050565b600060408284031215612db757600080fd5b610ac08383612d75565b601f821115611273576000816000526020600020601f850160051c81016020861015612dea5750805b601f850160051c820191505b81811015612e0957828155600101612df6565b505050505050565b81516001600160401b03811115612e2a57612e2a61285a565b612e3e81612e388454612826565b84612dc1565b602080601f831160018114612e735760008415612e5b5750858301515b600019600386901b1c1916600185901b178555612e09565b600085815260208120601f198616915b82811015612ea257888601518255948401946001909101908401612e83565b5085821015612ec05787850151600019600388901b60f8161c191681555b5050505050600190811b01905550565b600060208083018184528085518083526040925060408601915060408160051b87010184880160005b83811015612f4d57888303603f190185528151805163ffffffff1684528781015161ffff16888501528601516060878501819052612f39818601836121e6565b968901969450505090860190600101612ef9565b509098975050505050505050565b600060808284031215612f6d57600080fd5b612f75612870565b825181526020830151612f8781612b32565b6020820152612f998460408501612d75565b60408201529392505050565b634e487b7160e01b600052601160045260246000fd5b600082612fd857634e487b7160e01b600052601260045260246000fd5b500490565b808202811582820484141761090a5761090a612fa5565b8035602083101561090a57600019602084900360031b1b1692915050565b6001600160c01b0319813581811691600885101561303a5780818660080360031b1b83161692505b505092915050565b6001600160401b0360c01b8560c01b16815263ffffffff60e01b8460e01b16600882015282600c8201526000825161308181602c8501602087016121c2565b91909101602c0195945050505050565b8082018082111561090a5761090a612fa5565b8481526001600160401b0360c01b8460c01b166020820152826028820152600082516130d78160488501602087016121c2565b9190910160480195945050505050565b6000602082840312156130f957600080fd5b8151610ac081612225565b60008251612ae28184602087016121c256fea2646970667358221220d2887a551087e888559b0c88ca3bec874c08e79726679811c11ee5fdceded60e64736f6c63430008180033",
  "linkReferences": {},
  "deployedLinkReferences": {}
}