{
  "_format": "hh-sol-artifact-1",
  "contractName": "Token",
  "sourceName": "contracts/Token.sol",
  "abi": [
    {
      "inputs": [
        {
          "internalType": "string",
          "name": "_name",
          "type": "string"
        },
        {
          "internalType": "string",
          "name": "_symbol",
          "type": "string"
        },
        {
          "internalType": "address",
          "name": "_lzEndpoint",
          "type": "address"
        },
        {
          "internalType": "address",
          "name": "_delegate",
          "type": "address"
        }
      ],
      "stateMutability": "nonpayable",
      "type": "constructor"
    },
    {
      "inputs": [
        {
          "internalType": "address",
          "name": "target",
          "type": "address"
        }
      ],
      "name": "AddressEmptyCode",
      "type": "error"
    },
    {
      "inputs": [
        {
          "internalType": "address",
          "name": "account",
          "type": "address"
        }
      ],
      "name": "AddressInsufficientBalance",
      "type": "error"
    },
    {
      "inputs": [
        {
          "internalType": "address",
          "name": "spender",
          "type": "address"
        },
        {
          "internalType": "uint256",
          "name": "allowance",
          "type": "uint256"
        },
        {
          "internalType": "uint256",
          "name": "needed",
          "type": "uint256"
        }
      ],
      "name": "ERC20InsufficientAllowance",
      "type": "error"
    },
    {
      "inputs": [
        {
          "internalType": "address",
          "name": "sender",
          "type": "address"
        },
        {
          "internalType": "uint256",
          "name": "balance",
          "type": "uint256"
        },
        {
          "internalType": "uint256",
          "name": "needed",
          "type": "uint256"
        }
      ],
      "name": "ERC20InsufficientBalance",
      "type": "error"
    },
    {
      "inputs": [
        {
          "internalType": "address",
          "name": "approver",
          "type": "address"
        }
      ],
      "name": "ERC20InvalidApprover",
      "type": "error"
    },
    {
      "inputs": [
        {
          "internalType": "address",
          "name": "receiver",
          "type": "address"
        }
      ],
      "name": "ERC20InvalidReceiver",
      "type": "error"
    },
    {
      "inputs": [
        {
          "internalType": "address",
          "name": "sender",
          "type": "address"
        }
      ],
      "name": "ERC20InvalidSender",
      "type": "error"
    },
    {
      "inputs": [
        {
          "internalType": "address",
          "name": "spender",
          "type": "address"
        }
      ],
      "name": "ERC20InvalidSpender",
      "type": "error"
    },
    {
      "inputs": [],
      "name": "FailedInnerCall",
      "type": "error"
    },
    {
      "inputs": [],
      "name": "InvalidDelegate",
      "type": "error"
    },
    {
      "inputs": [],
      "name": "InvalidEndpointCall",
      "type": "error"
    },
    {
      "inputs": [],
      "name": "InvalidLocalDecimals",
      "type": "error"
    },
    {
      "inputs": [
        {
          "internalType": "bytes",
          "name": "options",
          "type": "bytes"
        }
      ],
      "name": "InvalidOptions",
      "type": "error"
    },
    {
      "inputs": [],
      "name": "LzTokenUnavailable",
      "type": "error"
    },
    {
      "inputs": [
        {
          "internalType": "uint32",
          "name": "eid",
          "type": "uint32"
        }
      ],
      "name": "NoPeer",
      "type": "error"
    },
    {
      "inputs": [
        {
          "internalType": "uint256",
          "name": "msgValue",
          "type": "uint256"
        }
      ],
      "name": "NotEnoughNative",
      "type": "error"
    },
    {
      "inputs": [
        {
          "internalType": "address",
          "name": "addr",
          "type": "address"
        }
      ],
      "name": "OnlyEndpoint",
      "type": "error"
    },
    {
      "inputs": [
        {
          "internalType": "uint32",
          "name": "eid",
          "type": "uint32"
        },
        {
          "internalType": "bytes32",
          "name": "sender",
          "type": "bytes32"
        }
      ],
      "name": "OnlyPeer",
      "type": "error"
    },
    {
      "inputs": [],
      "name": "OnlySelf",
      "type": "error"
    },
    {
      "inputs": [
        {
          "internalType": "address",
          "name": "owner",
          "type": "address"
        }
      ],
      "name": "OwnableInvalidOwner",
      "type": "error"
    },
    {
      "inputs": [
        {
          "internalType": "address",
          "name": "account",
          "type": "address"
        }
      ],
      "name": "OwnableUnauthorizedAccount",
      "type": "error"
    },
    {
      "inputs": [
        {
          "internalType": "address",
          "name": "token",
          "type": "address"
        }
      ],
      "name": "SafeERC20FailedOperation",
      "type": "error"
    },
    {
      "inputs": [
        {
          "internalType": "bytes",
          "name": "result",
          "type": "bytes"
        }
      ],
      "name": "SimulationResult",
      "type": "error"
    },
    {
      "inputs": [
        {
          "internalType": "uint256",
          "name": "amountLD",
          "type": "uint256"
        },
        {
          "internalType": "uint256",
          "name": "minAmountLD",
          "type": "uint256"
        }
      ],
      "name": "SlippageExceeded",
      "type": "error"
    },
    {
      "anonymous": false,
      "inputs": [
        {
          "indexed": true,
          "internalType": "address",
          "name": "owner",
          "type": "address"
        },
        {
          "indexed": true,
          "internalType": "address",
          "name": "spender",
          "type": "address"
        },
        {
          "indexed": false,
          "internalType": "uint256",
          "name": "value",
          "type": "uint256"
        }
      ],
      "name": "Approval",
      "type": "event"
    },
    {
      "anonymous": false,
      "inputs": [
        {
          "components": [
            {
              "internalType": "uint32",
              "name": "eid",
              "type": "uint32"
            },
            {
              "internalType": "uint16",
              "name": "msgType",
              "type": "uint16"
            },
            {
              "internalType": "bytes",
              "name": "options",
              "type": "bytes"
            }
          ],
          "indexed": false,
          "internalType": "struct EnforcedOptionParam[]",
          "name": "_enforcedOptions",
          "type": "tuple[]"
        }
      ],
      "name": "EnforcedOptionSet",
      "type": "event"
    },
    {
      "anonymous": false,
      "inputs": [
        {
          "indexed": false,
          "internalType": "address",
          "name": "inspector",
          "type": "address"
        }
      ],
      "name": "MsgInspectorSet",
      "type": "event"
    },
    {
      "anonymous": false,
      "inputs": [
        {
          "indexed": true,
          "internalType": "bytes32",
          "name": "guid",
          "type": "bytes32"
        },
        {
          "indexed": false,
          "internalType": "uint32",
          "name": "srcEid",
          "type": "uint32"
        },
        {
          "indexed": true,
          "internalType": "address",
          "name": "toAddress",
          "type": "address"
        },
        {
          "indexed": false,
          "internalType": "uint256",
          "name": "amountReceivedLD",
          "type": "uint256"
        }
      ],
      "name": "OFTReceived",
      "type": "event"
    },
    {
      "anonymous": false,
      "inputs": [
        {
          "indexed": true,
          "internalType": "bytes32",
          "name": "guid",
          "type": "bytes32"
        },
        {
          "indexed": false,
          "internalType": "uint32",
          "name": "dstEid",
          "type": "uint32"
        },
        {
          "indexed": true,
          "internalType": "address",
          "name": "fromAddress",
          "type": "address"
        },
        {
          "indexed": false,
          "internalType": "uint256",
          "name": "amountSentLD",
          "type": "uint256"
        },
        {
          "indexed": false,
          "internalType": "uint256",
          "name": "amountReceivedLD",
          "type": "uint256"
        }
      ],
      "name": "OFTSent",
      "type": "event"
    },
    {
      "anonymous": false,
      "inputs": [
        {
          "indexed": true,
          "internalType": "address",
          "name": "previousOwner",
          "type": "address"
        },
        {
          "indexed": true,
          "internalType": "address",
          "name": "newOwner",
          "type": "address"
        }
      ],
      "name": "OwnershipTransferred",
      "type": "event"
    },
    {
      "anonymous": false,
      "inputs": [
        {
          "indexed": false,
          "internalType": "uint32",
          "name": "eid",
          "type": "uint32"
        },
        {
          "indexed": false,
          "internalType": "bytes32",
          "name": "peer",
          "type": "bytes32"
        }
      ],
      "name": "PeerSet",
      "type": "event"
    },
    {
      "anonymous": false,
      "inputs": [
        {
          "indexed": false,
          "internalType": "address",
          "name": "preCrimeAddress",
          "type": "address"
        }
      ],
      "name": "PreCrimeSet",
      "type": "event"
    },
    {
      "anonymous": false,
      "inputs": [
        {
          "indexed": true,
          "internalType": "address",
          "name": "from",
          "type": "address"
        },
        {
          "indexed": true,
          "internalType": "address",
          "name": "to",
          "type": "address"
        },
        {
          "indexed": false,
          "internalType": "uint256",
          "name": "value",
          "type": "uint256"
        }
      ],
      "name": "Transfer",
      "type": "event"
    },
    {
      "inputs": [],
      "name": "SEND",
      "outputs": [
        {
          "internalType": "uint16",
          "name": "",
          "type": "uint16"
        }
      ],
      "stateMutability": "view",
      "type": "function"
    },
    {
      "inputs": [],
      "name": "SEND_AND_CALL",
      "outputs": [
        {
          "internalType": "uint16",
          "name": "",
          "type": "uint16"
        }
      ],
      "stateMutability": "view",
      "type": "function"
    },
    {
      "inputs": [
        {
          "components": [
            {
              "internalType": "uint32",
              "name": "srcEid",
              "type": "uint32"
            },
            {
              "internalType": "bytes32",
              "name": "sender",
              "type": "bytes32"
            },
            {
              "internalType": "uint64",
              "name": "nonce",
              "type": "uint64"
            }
          ],
          "internalType": "struct Origin",
          "name": "origin",
          "type": "tuple"
        }
      ],
      "name": "allowInitializePath",
      "outputs": [
        {
          "internalType": "bool",
          "name": "",
          "type": "bool"
        }
      ],
      "stateMutability": "view",
      "type": "function"
    },
    {
      "inputs": [
        {
          "internalType": "address",
          "name": "owner",
          "type": "address"
        },
        {
          "internalType": "address",
          "name": "spender",
          "type": "address"
        }
      ],
      "name": "allowance",
      "outputs": [
        {
          "internalType": "uint256",
          "name": "",
          "type": "uint256"
        }
      ],
      "stateMutability": "view",
      "type": "function"
    },
    {
      "inputs": [],
      "name": "approvalRequired",
      "outputs": [
        {
          "internalType": "bool",
          "name": "",
          "type": "bool"
        }
      ],
      "stateMutability": "pure",
      "type": "function"
    },
    {
      "inputs": [
        {
          "internalType": "address",
          "name": "spender",
          "type": "address"
        },
        {
          "internalType": "uint256",
          "name": "value",
          "type": "uint256"
        }
      ],
      "name": "approve",
      "outputs": [
        {
          "internalType": "bool",
          "name": "",
          "type": "bool"
        }
      ],
      "stateMutability": "nonpayable",
      "type": "function"
    },
    {
      "inputs": [
        {
          "internalType": "address",
          "name": "account",
          "type": "address"
        }
      ],
      "name": "balanceOf",
      "outputs": [
        {
          "internalType": "uint256",
          "name": "",
          "type": "uint256"
        }
      ],
      "stateMutability": "view",
      "type": "function"
    },
    {
      "inputs": [
        {
          "internalType": "uint32",
          "name": "_eid",
          "type": "uint32"
        },
        {
          "internalType": "uint16",
          "name": "_msgType",
          "type": "uint16"
        },
        {
          "internalType": "bytes",
          "name": "_extraOptions",
          "type": "bytes"
        }
      ],
      "name": "combineOptions",
      "outputs": [
        {
          "internalType": "bytes",
          "name": "",
          "type": "bytes"
        }
      ],
      "stateMutability": "view",
      "type": "function"
    },
    {
      "inputs": [],
      "name": "decimalConversionRate",
      "outputs": [
        {
          "internalType": "uint256",
          "name": "",
          "type": "uint256"
        }
      ],
      "stateMutability": "view",
      "type": "function"
    },
    {
      "inputs": [],
      "name": "decimals",
      "outputs": [
        {
          "internalType": "uint8",
          "name": "",
          "type": "uint8"
        }
      ],
      "stateMutability": "view",
      "type": "function"
    },
    {
      "inputs": [],
      "name": "endpoint",
      "outputs": [
        {
          "internalType": "contract ILayerZeroEndpointV2",
          "name": "",
          "type": "address"
        }
      ],
      "stateMutability": "view",
      "type": "function"
    },
    {
      "inputs": [
        {
          "internalType": "uint32",
          "name": "eid",
          "type": "uint32"
        },
        {
          "internalType": "uint16",
          "name": "msgType",
          "type": "uint16"
        }
      ],
      "name": "enforcedOptions",
      "outputs": [
        {
          "internalType": "bytes",
          "name": "enforcedOption",
          "type": "bytes"
        }
      ],
      "stateMutability": "view",
      "type": "function"
    },
    {
      "inputs": [
        {
          "components": [
            {
              "internalType": "uint32",
              "name": "srcEid",
              "type": "uint32"
            },
            {
              "internalType": "bytes32",
              "name": "sender",
              "type": "bytes32"
            },
            {
              "internalType": "uint64",
              "name": "nonce",
              "type": "uint64"
            }
          ],
          "internalType": "struct Origin",
          "name": "",
          "type": "tuple"
        },
        {
          "internalType": "bytes",
          "name": "",
          "type": "bytes"
        },
        {
          "internalType": "address",
          "name": "_sender",
          "type": "address"
        }
      ],
      "name": "isComposeMsgSender",
      "outputs": [
        {
          "internalType": "bool",
          "name": "",
          "type": "bool"
        }
      ],
      "stateMutability": "view",
      "type": "function"
    },
    {
      "inputs": [
        {
          "internalType": "uint32",
          "name": "_eid",
          "type": "uint32"
        },
        {
          "internalType": "bytes32",
          "name": "_peer",
          "type": "bytes32"
        }
      ],
      "name": "isPeer",
      "outputs": [
        {
          "internalType": "bool",
          "name": "",
          "type": "bool"
        }
      ],
      "stateMutability": "view",
      "type": "function"
    },
    {
      "inputs": [
        {
          "components": [
            {
              "internalType": "uint32",
              "name": "srcEid",
              "type": "uint32"
            },
            {
              "internalType": "bytes32",
              "name": "sender",
              "type": "bytes32"
            },
            {
              "internalType": "uint64",
              "name": "nonce",
              "type": "uint64"
            }
          ],
          "internalType": "struct Origin",
          "name": "_origin",
          "type": "tuple"
        },
        {
          "internalType": "bytes32",
          "name": "_guid",
          "type": "bytes32"
        },
        {
          "internalType": "bytes",
          "name": "_message",
          "type": "bytes"
        },
        {
          "internalType": "address",
          "name": "_executor",
          "type": "address"
        },
        {
          "internalType": "bytes",
          "name": "_extraData",
          "type": "bytes"
        }
      ],
      "name": "lzReceive",
      "outputs": [],
      "stateMutability": "payable",
      "type": "function"
    },
    {
      "inputs": [
        {
          "components": [
            {
              "components": [
                {
                  "internalType": "uint32",
                  "name": "srcEid",
                  "type": "uint32"
                },
                {
                  "internalType": "bytes32",
                  "name": "sender",
                  "type": "bytes32"
                },
                {
                  "internalType": "uint64",
                  "name": "nonce",
                  "type": "uint64"
                }
              ],
              "internalType": "struct Origin",
              "name": "origin",
              "type": "tuple"
            },
            {
              "internalType": "uint32",
              "name": "dstEid",
              "type": "uint32"
            },
            {
              "internalType": "address",
              "name": "receiver",
              "type": "address"
            },
            {
              "internalType": "bytes32",
              "name": "guid",
              "type": "bytes32"
            },
            {
              "internalType": "uint256",
              "name": "value",
              "type": "uint256"
            },
            {
              "internalType": "address",
              "name": "executor",
              "type": "address"
            },
            {
              "internalType": "bytes",
              "name": "message",
              "type": "bytes"
            },
            {
              "internalType": "bytes",
              "name": "extraData",
              "type": "bytes"
            }
          ],
          "internalType": "struct InboundPacket[]",
          "name": "_packets",
          "type": "tuple[]"
        }
      ],
      "name": "lzReceiveAndRevert",
      "outputs": [],
      "stateMutability": "payable",
      "type": "function"
    },
    {
      "inputs": [
        {
          "components": [
            {
              "internalType": "uint32",
              "name": "srcEid",
              "type": "uint32"
            },
            {
              "internalType": "bytes32",
              "name": "sender",
              "type": "bytes32"
            },
            {
              "internalType": "uint64",
              "name": "nonce",
              "type": "uint64"
            }
          ],
          "internalType": "struct Origin",
          "name": "_origin",
          "type": "tuple"
        },
        {
          "internalType": "bytes32",
          "name": "_guid",
          "type": "bytes32"
        },
        {
          "internalType": "bytes",
          "name": "_message",
          "type": "bytes"
        },
        {
          "internalType": "address",
          "name": "_executor",
          "type": "address"
        },
        {
          "internalType": "bytes",
          "name": "_extraData",
          "type": "bytes"
        }
      ],
      "name": "lzReceiveSimulate",
      "outputs": [],
      "stateMutability": "payable",
      "type": "function"
    },
    {
      "inputs": [
        {
          "internalType": "uint256",
          "name": "amount",
          "type": "uint256"
        },
        {
          "internalType": "address",
          "name": "to",
          "type": "address"
        }
      ],
      "name": "mint",
      "outputs": [],
      "stateMutability": "nonpayable",
      "type": "function"
    },
    {
      "inputs": [],
      "name": "msgInspector",
      "outputs": [
        {
          "internalType": "address",
          "name": "",
          "type": "address"
        }
      ],
      "stateMutability": "view",
      "type": "function"
    },
    {
      "inputs": [],
      "name": "name",
      "outputs": [
        {
          "internalType": "string",
          "name": "",
          "type": "string"
        }
      ],
      "stateMutability": "view",
      "type": "function"
    },
    {
      "inputs": [
        {
          "internalType": "uint32",
          "name": "",
          "type": "uint32"
        },
        {
          "internalType": "bytes32",
          "name": "",
          "type": "bytes32"
        }
      ],
      "name": "nextNonce",
      "outputs": [
        {
          "internalType": "uint64",
          "name": "nonce",
          "type": "uint64"
        }
      ],
      "stateMutability": "view",
      "type": "function"
    },
    {
      "inputs": [],
      "name": "oApp",
      "outputs": [
        {
          "internalType": "address",
          "name": "",
          "type": "address"
        }
      ],
      "stateMutability": "view",
      "type": "function"
    },
    {
      "inputs": [],
      "name": "oAppVersion",
      "outputs": [
        {
          "internalType": "uint64",
          "name": "senderVersion",
          "type": "uint64"
        },
        {
          "internalType": "uint64",
          "name": "receiverVersion",
          "type": "uint64"
        }
      ],
      "stateMutability": "pure",
      "type": "function"
    },
    {
      "inputs": [],
      "name": "oftVersion",
      "outputs": [
        {
          "internalType": "bytes4",
          "name": "interfaceId",
          "type": "bytes4"
        },
        {
          "internalType": "uint64",
          "name": "version",
          "type": "uint64"
        }
      ],
      "stateMutability": "pure",
      "type": "function"
    },
    {
      "inputs": [],
      "name": "owner",
      "outputs": [
        {
          "internalType": "address",
          "name": "",
          "type": "address"
        }
      ],
      "stateMutability": "view",
      "type": "function"
    },
    {
      "inputs": [
        {
          "internalType": "uint32",
          "name": "eid",
          "type": "uint32"
        }
      ],
      "name": "peers",
      "outputs": [
        {
          "internalType": "bytes32",
          "name": "peer",
          "type": "bytes32"
        }
      ],
      "stateMutability": "view",
      "type": "function"
    },
    {
      "inputs": [],
      "name": "preCrime",
      "outputs": [
        {
          "internalType": "address",
          "name": "",
          "type": "address"
        }
      ],
      "stateMutability": "view",
      "type": "function"
    },
    {
      "inputs": [
        {
          "components": [
            {
              "internalType": "uint32",
              "name": "dstEid",
              "type": "uint32"
            },
            {
              "internalType": "bytes32",
              "name": "to",
              "type": "bytes32"
            },
            {
              "internalType": "uint256",
              "name": "amountLD",
              "type": "uint256"
            },
            {
              "internalType": "uint256",
              "name": "minAmountLD",
              "type": "uint256"
            },
            {
              "internalType": "bytes",
              "name": "extraOptions",
              "type": "bytes"
            },
            {
              "internalType": "bytes",
              "name": "composeMsg",
              "type": "bytes"
            },
            {
              "internalType": "bytes",
              "name": "oftCmd",
              "type": "bytes"
            }
          ],
          "internalType": "struct SendParam",
          "name": "_sendParam",
          "type": "tuple"
        }
      ],
      "name": "quoteOFT",
      "outputs": [
        {
          "components": [
            {
              "internalType": "uint256",
              "name": "minAmountLD",
              "type": "uint256"
            },
            {
              "internalType": "uint256",
              "name": "maxAmountLD",
              "type": "uint256"
            }
          ],
          "internalType": "struct OFTLimit",
          "name": "oftLimit",
          "type": "tuple"
        },
        {
          "components": [
            {
              "internalType": "int256",
              "name": "feeAmountLD",
              "type": "int256"
            },
            {
              "internalType": "string",
              "name": "description",
              "type": "string"
            }
          ],
          "internalType": "struct OFTFeeDetail[]",
          "name": "oftFeeDetails",
          "type": "tuple[]"
        },
        {
          "components": [
            {
              "internalType": "uint256",
              "name": "amountSentLD",
              "type": "uint256"
            },
            {
              "internalType": "uint256",
              "name": "amountReceivedLD",
              "type": "uint256"
            }
          ],
          "internalType": "struct OFTReceipt",
          "name": "oftReceipt",
          "type": "tuple"
        }
      ],
      "stateMutability": "view",
      "type": "function"
    },
    {
      "inputs": [
        {
          "components": [
            {
              "internalType": "uint32",
              "name": "dstEid",
              "type": "uint32"
            },
            {
              "internalType": "bytes32",
              "name": "to",
              "type": "bytes32"
            },
            {
              "internalType": "uint256",
              "name": "amountLD",
              "type": "uint256"
            },
            {
              "internalType": "uint256",
              "name": "minAmountLD",
              "type": "uint256"
            },
            {
              "internalType": "bytes",
              "name": "extraOptions",
              "type": "bytes"
            },
            {
              "internalType": "bytes",
              "name": "composeMsg",
              "type": "bytes"
            },
            {
              "internalType": "bytes",
              "name": "oftCmd",
              "type": "bytes"
            }
          ],
          "internalType": "struct SendParam",
          "name": "_sendParam",
          "type": "tuple"
        },
        {
          "internalType": "bool",
          "name": "_payInLzToken",
          "type": "bool"
        }
      ],
      "name": "quoteSend",
      "outputs": [
        {
          "components": [
            {
              "internalType": "uint256",
              "name": "nativeFee",
              "type": "uint256"
            },
            {
              "internalType": "uint256",
              "name": "lzTokenFee",
              "type": "uint256"
            }
          ],
          "internalType": "struct MessagingFee",
          "name": "msgFee",
          "type": "tuple"
        }
      ],
      "stateMutability": "view",
      "type": "function"
    },
    {
      "inputs": [],
      "name": "renounceOwnership",
      "outputs": [],
      "stateMutability": "nonpayable",
      "type": "function"
    },
    {
      "inputs": [
        {
          "components": [
            {
              "internalType": "uint32",
              "name": "dstEid",
              "type": "uint32"
            },
            {
              "internalType": "bytes32",
              "name": "to",
              "type": "bytes32"
            },
            {
              "internalType": "uint256",
              "name": "amountLD",
              "type": "uint256"
            },
            {
              "internalType": "uint256",
              "name": "minAmountLD",
              "type": "uint256"
            },
            {
              "internalType": "bytes",
              "name": "extraOptions",
              "type": "bytes"
            },
            {
              "internalType": "bytes",
              "name": "composeMsg",
              "type": "bytes"
            },
            {
              "internalType": "bytes",
              "name": "oftCmd",
              "type": "bytes"
            }
          ],
          "internalType": "struct SendParam",
          "name": "_sendParam",
          "type": "tuple"
        },
        {
          "components": [
            {
              "internalType": "uint256",
              "name": "nativeFee",
              "type": "uint256"
            },
            {
              "internalType": "uint256",
              "name": "lzTokenFee",
              "type": "uint256"
            }
          ],
          "internalType": "struct MessagingFee",
          "name": "_fee",
          "type": "tuple"
        },
        {
          "internalType": "address",
          "name": "_refundAddress",
          "type": "address"
        }
      ],
      "name": "send",
      "outputs": [
        {
          "components": [
            {
              "internalType": "bytes32",
              "name": "guid",
              "type": "bytes32"
            },
            {
              "internalType": "uint64",
              "name": "nonce",
              "type": "uint64"
            },
            {
              "components": [
                {
                  "internalType": "uint256",
                  "name": "nativeFee",
                  "type": "uint256"
                },
                {
                  "internalType": "uint256",
                  "name": "lzTokenFee",
                  "type": "uint256"
                }
              ],
              "internalType": "struct MessagingFee",
              "name": "fee",
              "type": "tuple"
            }
          ],
          "internalType": "struct MessagingReceipt",
          "name": "msgReceipt",
          "type": "tuple"
        },
        {
          "components": [
            {
              "internalType": "uint256",
              "name": "amountSentLD",
              "type": "uint256"
            },
            {
              "internalType": "uint256",
              "name": "amountReceivedLD",
              "type": "uint256"
            }
          ],
          "internalType": "struct OFTReceipt",
          "name": "oftReceipt",
          "type": "tuple"
        }
      ],
      "stateMutability": "payable",
      "type": "function"
    },
    {
      "inputs": [
        {
          "internalType": "address",
          "name": "_delegate",
          "type": "address"
        }
      ],
      "name": "setDelegate",
      "outputs": [],
      "stateMutability": "nonpayable",
      "type": "function"
    },
    {
      "inputs": [
        {
          "components": [
            {
              "internalType": "uint32",
              "name": "eid",
              "type": "uint32"
            },
            {
              "internalType": "uint16",
              "name": "msgType",
              "type": "uint16"
            },
            {
              "internalType": "bytes",
              "name": "options",
              "type": "bytes"
            }
          ],
          "internalType": "struct EnforcedOptionParam[]",
          "name": "_enforcedOptions",
          "type": "tuple[]"
        }
      ],
      "name": "setEnforcedOptions",
      "outputs": [],
      "stateMutability": "nonpayable",
      "type": "function"
    },
    {
      "inputs": [
        {
          "internalType": "address",
          "name": "_msgInspector",
          "type": "address"
        }
      ],
      "name": "setMsgInspector",
      "outputs": [],
      "stateMutability": "nonpayable",
      "type": "function"
    },
    {
      "inputs": [
        {
          "internalType": "uint32",
          "name": "_eid",
          "type": "uint32"
        },
        {
          "internalType": "bytes32",
          "name": "_peer",
          "type": "bytes32"
        }
      ],
      "name": "setPeer",
      "outputs": [],
      "stateMutability": "nonpayable",
      "type": "function"
    },
    {
      "inputs": [
        {
          "internalType": "address",
          "name": "_preCrime",
          "type": "address"
        }
      ],
      "name": "setPreCrime",
      "outputs": [],
      "stateMutability": "nonpayable",
      "type": "function"
    },
    {
      "inputs": [],
      "name": "sharedDecimals",
      "outputs": [
        {
          "internalType": "uint8",
          "name": "",
          "type": "uint8"
        }
      ],
      "stateMutability": "view",
      "type": "function"
    },
    {
      "inputs": [],
      "name": "symbol",
      "outputs": [
        {
          "internalType": "string",
          "name": "",
          "type": "string"
        }
      ],
      "stateMutability": "view",
      "type": "function"
    },
    {
      "inputs": [],
      "name": "token",
      "outputs": [
        {
          "internalType": "address",
          "name": "",
          "type": "address"
        }
      ],
      "stateMutability": "view",
      "type": "function"
    },
    {
      "inputs": [],
      "name": "totalSupply",
      "outputs": [
        {
          "internalType": "uint256",
          "name": "",
          "type": "uint256"
        }
      ],
      "stateMutability": "view",
      "type": "function"
    },
    {
      "inputs": [
        {
          "internalType": "address",
          "name": "to",
          "type": "address"
        },
        {
          "internalType": "uint256",
          "name": "value",
          "type": "uint256"
        }
      ],
      "name": "transfer",
      "outputs": [
        {
          "internalType": "bool",
          "name": "",
          "type": "bool"
        }
      ],
      "stateMutability": "nonpayable",
      "type": "function"
    },
    {
      "inputs": [
        {
          "internalType": "address",
          "name": "from",
          "type": "address"
        },
        {
          "internalType": "address",
          "name": "to",
          "type": "address"
        },
        {
          "internalType": "uint256",
          "name": "value",
          "type": "uint256"
        }
      ],
      "name": "transferFrom",
      "outputs": [
        {
          "internalType": "bool",
          "name": "",
          "type": "bool"
        }
      ],
      "stateMutability": "nonpayable",
      "type": "function"
    },
    {
      "inputs": [
        {
          "internalType": "address",
          "name": "newOwner",
          "type": "address"
        }
      ],
      "name": "transferOwnership",
      "outputs": [],
      "stateMutability": "nonpayable",
      "type": "function"
    }
  ],
  "bytecode": "0x60c06040523480156200001157600080fd5b506040516200378e3803806200378e8339810160408190526200003491620002d2565b83838383838360128484818181818d6001600160a01b0381166200007257604051631e4fbdf760e01b81526000600482015260240160405180910390fd5b6200007d8162000198565b506001600160a01b038083166080528116620000ac57604051632d618d8160e21b815260040160405180910390fd5b60805160405163ca5eb5e160e01b81526001600160a01b0383811660048301529091169063ca5eb5e190602401600060405180830381600087803b158015620000f457600080fd5b505af115801562000109573d6000803e3d6000fd5b505050505050505062000121620001e860201b60201c565b60ff168360ff16101562000148576040516301e9714b60e41b815260040160405180910390fd5b6200015560068462000377565b6200016290600a62000496565b60a052506008915062000178905083826200053f565b5060096200018782826200053f565b50505050505050505050506200060b565b600080546001600160a01b038381166001600160a01b0319831681178455604051919092169283917f8be0079c531659141344cd1fd0a4f28419497f9722a3daafe3b4186f6b6457e09190a35050565b600690565b634e487b7160e01b600052604160045260246000fd5b600082601f8301126200021557600080fd5b81516001600160401b0380821115620002325762000232620001ed565b604051601f8301601f19908116603f011681019082821181831017156200025d576200025d620001ed565b81604052838152602092508660208588010111156200027b57600080fd5b600091505b838210156200029f578582018301518183018401529082019062000280565b6000602085830101528094505050505092915050565b80516001600160a01b0381168114620002cd57600080fd5b919050565b60008060008060808587031215620002e957600080fd5b84516001600160401b03808211156200030157600080fd5b6200030f8883890162000203565b955060208701519150808211156200032657600080fd5b50620003358782880162000203565b9350506200034660408601620002b5565b91506200035660608601620002b5565b905092959194509250565b634e487b7160e01b600052601160045260246000fd5b60ff828116828216039081111562000393576200039362000361565b92915050565b600181815b80851115620003da578160001904821115620003be57620003be62000361565b80851615620003cc57918102915b93841c93908002906200039e565b509250929050565b600082620003f35750600162000393565b81620004025750600062000393565b81600181146200041b5760028114620004265762000446565b600191505062000393565b60ff8411156200043a576200043a62000361565b50506001821b62000393565b5060208310610133831016604e8410600b84101617156200046b575081810a62000393565b62000477838362000399565b80600019048211156200048e576200048e62000361565b029392505050565b6000620004a760ff841683620003e2565b9392505050565b600181811c90821680620004c357607f821691505b602082108103620004e457634e487b7160e01b600052602260045260246000fd5b50919050565b601f8211156200053a576000816000526020600020601f850160051c81016020861015620005155750805b601f850160051c820191505b81811015620005365782815560010162000521565b5050505b505050565b81516001600160401b038111156200055b576200055b620001ed565b62000573816200056c8454620004ae565b84620004ea565b602080601f831160018114620005ab5760008415620005925750858301515b600019600386901b1c1916600185901b17855562000536565b600085815260208120601f198616915b82811015620005dc57888601518255948401946001909101908401620005bb565b5085821015620005fb5787850151600019600388901b60f8161c191681555b5050505050600190811b01905550565b60805160a051613117620006776000396000818161064901528181611b5101528181611bc60152611dca0152600081816104e8015281816109b8015281816110d901528181611358015281816116c3015281816119a001528181611ecb0152611f8201526131176000f3fe60806040526004361061025c5760003560e01c80637d25a05e11610144578063bb0b6a53116100b6578063d045a0dc1161007a578063d045a0dc14610780578063d424388514610793578063dd62ed3e146107b3578063f2fde38b146107f9578063fc0c546a1461046c578063ff7bd03d1461081957600080fd5b8063bb0b6a53146106df578063bc70b3541461070c578063bd815db01461072c578063c7c7f5b31461073f578063ca5eb5e11461076057600080fd5b806395d89b411161010857806395d89b4114610622578063963efcaa146106375780639f68b9641461066b578063a9059cbb1461067f578063b731ea0a1461069f578063b98bd070146106bf57600080fd5b80637d25a05e1461057557806382413eac146105b0578063857749b0146105d05780638da5cb5b146105e457806394bf804d1461060257600080fd5b806323b872dd116101dd5780635535d461116101a15780635535d4611461047f5780635a0dfe4d1461049f5780635e280f11146104d65780636fc1b31e1461050a57806370a082311461052a578063715018a61461056057600080fd5b806323b872dd146103dd578063313ce567146103fd5780633400288b1461041f5780633b6f743b1461043f57806352ae28791461046c57600080fd5b8063134d4f2511610224578063134d4f2514610338578063156a0d0f1461036057806317442b701461038757806318160ddd146103a95780631f5e1334146103c857600080fd5b806306fdde0314610261578063095ea7b31461028c5780630d35b415146102bc578063111ecdad146102eb57806313137d6514610323575b600080fd5b34801561026d57600080fd5b50610276610839565b60405161028391906121dd565b60405180910390f35b34801561029857600080fd5b506102ac6102a7366004612205565b6108cb565b6040519015158152602001610283565b3480156102c857600080fd5b506102dc6102d7366004612249565b6108e5565b6040516102839392919061227d565b3480156102f757600080fd5b5060045461030b906001600160a01b031681565b6040516001600160a01b039091168152602001610283565b610336610331366004612370565b6109b6565b005b34801561034457600080fd5b5061034d600281565b60405161ffff9091168152602001610283565b34801561036c57600080fd5b506040805162b9270b60e21b81526001602082015201610283565b34801561039357600080fd5b5060408051600181526002602082015201610283565b3480156103b557600080fd5b506007545b604051908152602001610283565b3480156103d457600080fd5b5061034d600181565b3480156103e957600080fd5b506102ac6103f836600461240f565b610a76565b34801561040957600080fd5b5060125b60405160ff9091168152602001610283565b34801561042b57600080fd5b5061033661043a366004612469565b610a9c565b34801561044b57600080fd5b5061045f61045a366004612493565b610ab2565b60405161028391906124e4565b34801561047857600080fd5b503061030b565b34801561048b57600080fd5b5061027661049a36600461250d565b610b19565b3480156104ab57600080fd5b506102ac6104ba366004612469565b63ffffffff919091166000908152600160205260409020541490565b3480156104e257600080fd5b5061030b7f000000000000000000000000000000000000000000000000000000000000000081565b34801561051657600080fd5b50610336610525366004612540565b610bbe565b34801561053657600080fd5b506103ba610545366004612540565b6001600160a01b031660009081526005602052604090205490565b34801561056c57600080fd5b50610336610c1b565b34801561058157600080fd5b50610598610590366004612469565b600092915050565b6040516001600160401b039091168152602001610283565b3480156105bc57600080fd5b506102ac6105cb36600461255d565b610c2f565b3480156105dc57600080fd5b50600661040d565b3480156105f057600080fd5b506000546001600160a01b031661030b565b34801561060e57600080fd5b5061033661061d3660046125c3565b610c44565b34801561062e57600080fd5b50610276610c4e565b34801561064357600080fd5b506103ba7f000000000000000000000000000000000000000000000000000000000000000081565b34801561067757600080fd5b5060006102ac565b34801561068b57600080fd5b506102ac61069a366004612205565b610c5d565b3480156106ab57600080fd5b5060025461030b906001600160a01b031681565b3480156106cb57600080fd5b506103366106da36600461262c565b610c6b565b3480156106eb57600080fd5b506103ba6106fa36600461266d565b60016020526000908152604090205481565b34801561071857600080fd5b50610276610727366004612688565b610c85565b61033661073a36600461262c565b610e2d565b61075261074d3660046126e8565b610fb7565b604051610283929190612755565b34801561076c57600080fd5b5061033661077b366004612540565b6110b2565b61033661078e366004612370565b611138565b34801561079f57600080fd5b506103366107ae366004612540565b611167565b3480156107bf57600080fd5b506103ba6107ce3660046127a7565b6001600160a01b03918216600090815260066020908152604080832093909416825291909152205490565b34801561080557600080fd5b50610336610814366004612540565b6111bd565b34801561082557600080fd5b506102ac6108343660046127d5565b6111fb565b606060088054610848906127f1565b80601f0160208091040260200160405190810160405280929190818152602001828054610874906127f1565b80156108c15780601f10610896576101008083540402835291602001916108c1565b820191906000526020600020905b8154815290600101906020018083116108a457829003601f168201915b5050505050905090565b6000336108d9818585611231565b60019150505b92915050565b60408051808201909152600080825260208201526060610918604051806040016040528060008152602001600081525090565b60408051808201825260008082526001600160401b03602080840182905284518381529081019094529195509182610973565b60408051808201909152600081526060602082015281526020019060019003908161094b5790505b509350600080610998604089013560608a013561099360208c018c61266d565b611243565b60408051808201909152918252602082015296989597505050505050565b7f00000000000000000000000000000000000000000000000000000000000000006001600160a01b03163314610a06576040516391ac5e4f60e01b81523360048201526024015b60405180910390fd5b60208701803590610a2090610a1b908a61266d565b611287565b14610a5e57610a32602088018861266d565b60405163309afaf360e21b815263ffffffff9091166004820152602088013560248201526044016109fd565b610a6d878787878787876112c3565b50505050505050565b600033610a8485828561142a565b610a8f8585856114a8565b60019150505b9392505050565b610aa4611507565b610aae8282611534565b5050565b60408051808201909152600080825260208201526000610ae260408501356060860135610993602088018861266d565b915050600080610af28684611589565b9092509050610b0f610b07602088018861266d565b8383886116ad565b9695505050505050565b600360209081526000928352604080842090915290825290208054610b3d906127f1565b80601f0160208091040260200160405190810160405280929190818152602001828054610b69906127f1565b8015610bb65780601f10610b8b57610100808354040283529160200191610bb6565b820191906000526020600020905b815481529060010190602001808311610b9957829003601f168201915b505050505081565b610bc6611507565b600480546001600160a01b0319166001600160a01b0383169081179091556040519081527ff0be4f1e87349231d80c36b33f9e8639658eeaf474014dee15a3e6a4d4414197906020015b60405180910390a150565b610c23611507565b610c2d600061178e565b565b6001600160a01b03811630145b949350505050565b610aae81836117de565b606060098054610848906127f1565b6000336108d98185856114a8565b610c73611507565b610aae610c8082846128dc565b611814565b63ffffffff8416600090815260036020908152604080832061ffff87168452909152812080546060929190610cb9906127f1565b80601f0160208091040260200160405190810160405280929190818152602001828054610ce5906127f1565b8015610d325780601f10610d0757610100808354040283529160200191610d32565b820191906000526020600020905b815481529060010190602001808311610d1557829003601f168201915b505050505090508051600003610d825783838080601f016020809104026020016040519081016040528093929190818152602001838380828437600092019190915250929450610c3c9350505050565b6000839003610d92579050610c3c565b60028310610e1057610dd984848080601f01602080910402602001604051908101604052809392919081815260200183838082843760009201919091525061191b92505050565b80610de784600281886129f1565b604051602001610df993929190612a1b565b604051602081830303815290604052915050610c3c565b8383604051639a6d49cd60e01b81526004016109fd929190612a6c565b60005b81811015610f365736838383818110610e4b57610e4b612a80565b9050602002810190610e5d9190612a96565b9050610e90610e6f602083018361266d565b602083013563ffffffff919091166000908152600160205260409020541490565b610e9a5750610f2e565b3063d045a0dc60c08301358360a0810135610eb9610100830183612ab7565b610eca610100890160e08a01612540565b610ed86101208a018a612ab7565b6040518963ffffffff1660e01b8152600401610efa9796959493929190612b12565b6000604051808303818588803b158015610f1357600080fd5b505af1158015610f27573d6000803e3d6000fd5b5050505050505b600101610e30565b50336001600160a01b0316638e9e70996040518163ffffffff1660e01b8152600401600060405180830381865afa158015610f75573d6000803e3d6000fd5b505050506040513d6000823e601f3d908101601f19168201604052610f9d9190810190612b98565b604051638351eea760e01b81526004016109fd91906121dd565b610fbf612146565b6040805180820190915260008082526020820152600080610ff633604089013560608a0135610ff160208c018c61266d565b611947565b915091506000806110078984611589565b909250905061103361101c60208b018b61266d565b838361102d368d90038d018d612c05565b8b61196d565b60408051808201909152858152602080820186905282519298509096503391907f85496b760a4b7f8d66384b9df21b381f5d1b1e79f229a47aaf4c232edc2fe59a90611081908d018d61266d565b6040805163ffffffff909216825260208201899052810187905260600160405180910390a350505050935093915050565b6110ba611507565b60405163ca5eb5e160e01b81526001600160a01b0382811660048301527f0000000000000000000000000000000000000000000000000000000000000000169063ca5eb5e190602401600060405180830381600087803b15801561111d57600080fd5b505af1158015611131573d6000803e3d6000fd5b5050505050565b3330146111585760405163029a949d60e31b815260040160405180910390fd5b610a6d87878787878787610a5e565b61116f611507565b600280546001600160a01b0319166001600160a01b0383169081179091556040519081527fd48d879cef83a1c0bdda516f27b13ddb1b3f8bbac1c9e1511bb2a659c242776090602001610c10565b6111c5611507565b6001600160a01b0381166111ef57604051631e4fbdf760e01b8152600060048201526024016109fd565b6111f88161178e565b50565b6000602082018035906001908390611213908661266d565b63ffffffff1681526020810191909152604001600020541492915050565b61123e8383836001611a78565b505050565b60008061124f85611b4d565b91508190508381101561127f576040516371c4efed60e01b815260048101829052602481018590526044016109fd565b935093915050565b63ffffffff8116600090815260016020526040812054806108df5760405163f6ff4fb760e01b815263ffffffff841660048201526024016109fd565b60006112d56112d28787611b84565b90565b90506000611301826112ef6112ea8a8a611b9c565b611bbf565b6112fc60208d018d61266d565b611bf4565b905060288611156113c857600061133e61132160608c0160408d01612c37565b61132e60208d018d61266d565b846113398c8c611c1c565b611c67565b604051633e5ac80960e11b81529091506001600160a01b037f00000000000000000000000000000000000000000000000000000000000000001690637cb59012906113949086908d906000908790600401612c54565b600060405180830381600087803b1580156113ae57600080fd5b505af11580156113c2573d6000803e3d6000fd5b50505050505b6001600160a01b038216887fefed6d3500546b29533b128a29e3a94d70788727f0507505ac12eaf2e578fd9c61140160208d018d61266d565b6040805163ffffffff9092168252602082018690520160405180910390a3505050505050505050565b6001600160a01b0383811660009081526006602090815260408083209386168352929052205460001981146114a2578181101561149357604051637dc7a0d960e11b81526001600160a01b038416600482015260248101829052604481018390526064016109fd565b6114a284848484036000611a78565b50505050565b6001600160a01b0383166114d257604051634b637e8f60e11b8152600060048201526024016109fd565b6001600160a01b0382166114fc5760405163ec442f0560e01b8152600060048201526024016109fd565b61123e838383611c99565b6000546001600160a01b03163314610c2d5760405163118cdaa760e01b81523360048201526024016109fd565b63ffffffff8216600081815260016020908152604091829020849055815192835282018390527f238399d427b947898edb290f5ff0f9109849b1c3ba196a42e35f00c50a54b98b910160405180910390a15050565b60608060006115e6856020013561159f86611dc3565b6115ac60a0890189612ab7565b8080601f016020809104026020016040519081016040528093929190818152602001838380828437600092019190915250611def92505050565b90935090506000816115f95760016115fc565b60025b905061161c61160e602088018861266d565b8261072760808a018a612ab7565b6004549093506001600160a01b0316156116a4576004805460405163043a78eb60e01b81526001600160a01b039091169163043a78eb91611661918891889101612c85565b602060405180830381865afa15801561167e573d6000803e3d6000fd5b505050506040513d601f19601f820116820180604052508101906116a29190612caa565b505b50509250929050565b60408051808201909152600080825260208201527f00000000000000000000000000000000000000000000000000000000000000006001600160a01b031663ddc28c586040518060a001604052808863ffffffff16815260200161171089611287565b8152602001878152602001868152602001851515815250306040518363ffffffff1660e01b8152600401611745929190612cc7565b6040805180830381865afa158015611761573d6000803e3d6000fd5b505050506040513d601f19601f820116820180604052508101906117859190612d70565b95945050505050565b600080546001600160a01b038381166001600160a01b0319831681178455604051919092169283917f8be0079c531659141344cd1fd0a4f28419497f9722a3daafe3b4186f6b6457e09190a35050565b6001600160a01b0382166118085760405163ec442f0560e01b8152600060048201526024016109fd565b610aae60008383611c99565b60005b81518110156118eb5761184682828151811061183557611835612a80565b60200260200101516040015161191b565b81818151811061185857611858612a80565b6020026020010151604001516003600084848151811061187a5761187a612a80565b60200260200101516000015163ffffffff1663ffffffff16815260200190815260200160002060008484815181106118b4576118b4612a80565b60200260200101516020015161ffff1661ffff16815260200190815260200160002090816118e29190612ddc565b50600101611817565b507fbe4864a8e820971c0247f5992e2da559595f7bf076a21cb5928d443d2a13b67481604051610c109190612e9b565b600281015161ffff8116600314610aae5781604051639a6d49cd60e01b81526004016109fd91906121dd565b600080611955858585611243565b90925090506119648683611e69565b94509492505050565b611975612146565b60006119848460000151611e9f565b60208501519091501561199e5761199e8460200151611ec7565b7f00000000000000000000000000000000000000000000000000000000000000006001600160a01b0316632637a450826040518060a001604052808b63ffffffff1681526020016119ee8c611287565b81526020018a815260200189815260200160008960200151111515815250866040518463ffffffff1660e01b8152600401611a2a929190612cc7565b60806040518083038185885af1158015611a48573d6000803e3d6000fd5b50505050506040513d601f19601f82011682018060405250810190611a6d9190612f26565b979650505050505050565b6001600160a01b038416611aa25760405163e602df0560e01b8152600060048201526024016109fd565b6001600160a01b038316611acc57604051634a1406b160e11b8152600060048201526024016109fd565b6001600160a01b03808516600090815260066020908152604080832093871683529290522082905580156114a257826001600160a01b0316846001600160a01b03167f8c5be1e5ebec7d5bd14f71427d1e84f3dd0314c0f7b2291e5b200ac8c7c3b92584604051611b3f91815260200190565b60405180910390a350505050565b60007f0000000000000000000000000000000000000000000000000000000000000000611b7a8184612f86565b6108df9190612fa8565b6000611b9360208284866129f1565b610a9591612fbf565b6000611bac6028602084866129f1565b611bb591612fdd565b60c01c9392505050565b60006108df7f00000000000000000000000000000000000000000000000000000000000000006001600160401b038416612fa8565b60006001600160a01b038416611c0a5761dead93505b611c1484846117de565b509092915050565b6060611c2b82602881866129f1565b8080601f016020809104026020016040519081016040528093929190818152602001838380828437600092019190915250929695505050505050565b606084848484604051602001611c80949392919061300d565b6040516020818303038152906040529050949350505050565b6001600160a01b038316611cc4578060076000828254611cb9919061305c565b90915550611d369050565b6001600160a01b03831660009081526005602052604090205481811015611d175760405163391434e360e21b81526001600160a01b038516600482015260248101829052604481018390526064016109fd565b6001600160a01b03841660009081526005602052604090209082900390555b6001600160a01b038216611d5257600780548290039055611d71565b6001600160a01b03821660009081526005602052604090208054820190555b816001600160a01b0316836001600160a01b03167fddf252ad1be2c89b69c2b068fc378daa952ba7f163c4a11628f55a4df523b3ef83604051611db691815260200190565b60405180910390a3505050565b60006108df7f000000000000000000000000000000000000000000000000000000000000000083612f86565b8051606090151580611e38578484604051602001611e2492919091825260c01b6001600160c01b031916602082015260280190565b604051602081830303815290604052611e5f565b84843385604051602001611e4f949392919061306f565b6040516020818303038152906040525b9150935093915050565b6001600160a01b038216611e9357604051634b637e8f60e11b8152600060048201526024016109fd565b610aae82600083611c99565b6000813414611ec3576040516304fb820960e51b81523460048201526024016109fd565b5090565b60007f00000000000000000000000000000000000000000000000000000000000000006001600160a01b031663e4fe1d946040518163ffffffff1660e01b8152600401602060405180830381865afa158015611f27573d6000803e3d6000fd5b505050506040513d601f19601f82011682018060405250810190611f4b91906130b2565b90506001600160a01b038116611f74576040516329b99a9560e11b815260040160405180910390fd5b6040805133602482018190527f00000000000000000000000000000000000000000000000000000000000000006001600160a01b03818116604485015260648085018890528551808603909101815260849094019094526020830180516001600160e01b03166323b872dd60e01b179052610aae9385169286906114a29085906000612000838361204e565b905080516000141580156120255750808060200190518101906120239190612caa565b155b1561123e57604051635274afe760e01b81526001600160a01b03841660048201526024016109fd565b6060610a958383600084600080856001600160a01b0316848660405161207491906130cf565b60006040518083038185875af1925050503d80600081146120b1576040519150601f19603f3d011682016040523d82523d6000602084013e6120b6565b606091505b5091509150610b0f8683836060826120d6576120d18261211d565b610a95565b81511580156120ed57506001600160a01b0384163b155b1561211657604051639996b31560e01b81526001600160a01b03851660048201526024016109fd565b5080610a95565b80511561212d5780518082602001fd5b604051630a12f52160e11b815260040160405180910390fd5b60405180606001604052806000801916815260200160006001600160401b03168152602001612188604051806040016040528060008152602001600081525090565b905290565b60005b838110156121a8578181015183820152602001612190565b50506000910152565b600081518084526121c981602086016020860161218d565b601f01601f19169290920160200192915050565b602081526000610a9560208301846121b1565b6001600160a01b03811681146111f857600080fd5b6000806040838503121561221857600080fd5b8235612223816121f0565b946020939093013593505050565b600060e0828403121561224357600080fd5b50919050565b60006020828403121561225b57600080fd5b81356001600160401b0381111561227157600080fd5b610c3c84828501612231565b8351815260208085015190820152600060a08201604060a0604085015281865180845260c08601915060c08160051b8701019350602080890160005b838110156122f85788870360bf190185528151805188528301518388018790526122e5878901826121b1565b97505093820193908201906001016122b9565b50508751606088015250505060208501516080850152509050610c3c565b60006060828403121561224357600080fd5b60008083601f84011261233a57600080fd5b5081356001600160401b0381111561235157600080fd5b60208301915083602082850101111561236957600080fd5b9250929050565b600080600080600080600060e0888a03121561238b57600080fd5b6123958989612316565b96506060880135955060808801356001600160401b03808211156123b857600080fd5b6123c48b838c01612328565b909750955060a08a013591506123d9826121f0565b90935060c089013590808211156123ef57600080fd5b506123fc8a828b01612328565b989b979a50959850939692959293505050565b60008060006060848603121561242457600080fd5b833561242f816121f0565b9250602084013561243f816121f0565b929592945050506040919091013590565b803563ffffffff8116811461246457600080fd5b919050565b6000806040838503121561247c57600080fd5b61222383612450565b80151581146111f857600080fd5b600080604083850312156124a657600080fd5b82356001600160401b038111156124bc57600080fd5b6124c885828601612231565b92505060208301356124d981612485565b809150509250929050565b8151815260208083015190820152604081016108df565b803561ffff8116811461246457600080fd5b6000806040838503121561252057600080fd5b61252983612450565b9150612537602084016124fb565b90509250929050565b60006020828403121561255257600080fd5b8135610a95816121f0565b60008060008060a0858703121561257357600080fd5b61257d8686612316565b935060608501356001600160401b0381111561259857600080fd5b6125a487828801612328565b90945092505060808501356125b8816121f0565b939692955090935050565b600080604083850312156125d657600080fd5b8235915060208301356124d9816121f0565b60008083601f8401126125fa57600080fd5b5081356001600160401b0381111561261157600080fd5b6020830191508360208260051b850101111561236957600080fd5b6000806020838503121561263f57600080fd5b82356001600160401b0381111561265557600080fd5b612661858286016125e8565b90969095509350505050565b60006020828403121561267f57600080fd5b610a9582612450565b6000806000806060858703121561269e57600080fd5b6126a785612450565b93506126b5602086016124fb565b925060408501356001600160401b038111156126d057600080fd5b6126dc87828801612328565b95989497509550505050565b600080600083850360808112156126fe57600080fd5b84356001600160401b0381111561271457600080fd5b61272087828801612231565b9450506040601f198201121561273557600080fd5b50602084019150606084013561274a816121f0565b809150509250925092565b600060c082019050835182526001600160401b0360208501511660208301526040840151612790604084018280518252602090810151910152565b5082516080830152602083015160a0830152610a95565b600080604083850312156127ba57600080fd5b82356127c5816121f0565b915060208301356124d9816121f0565b6000606082840312156127e757600080fd5b610a958383612316565b600181811c9082168061280557607f821691505b60208210810361224357634e487b7160e01b600052602260045260246000fd5b634e487b7160e01b600052604160045260246000fd5b604051606081016001600160401b038111828210171561285d5761285d612825565b60405290565b604080519081016001600160401b038111828210171561285d5761285d612825565b604051601f8201601f191681016001600160401b03811182821017156128ad576128ad612825565b604052919050565b60006001600160401b038211156128ce576128ce612825565b50601f01601f191660200190565b60006001600160401b03808411156128f6576128f6612825565b8360051b6020612907818301612885565b86815291850191818101903684111561291f57600080fd5b865b848110156129e5578035868111156129395760008081fd5b8801606036829003121561294d5760008081fd5b61295561283b565b61295e82612450565b815261296b8683016124fb565b86820152604080830135898111156129835760008081fd5b929092019136601f8401126129985760008081fd5b82356129ab6129a6826128b5565b612885565b81815236898387010111156129c05760008081fd5b818986018a830137600091810189019190915290820152845250918301918301612921565b50979650505050505050565b60008085851115612a0157600080fd5b83861115612a0e57600080fd5b5050820193919092039150565b60008451612a2d81846020890161218d565b8201838582376000930192835250909392505050565b81835281816020850137506000828201602090810191909152601f909101601f19169091010190565b602081526000610c3c602083018486612a43565b634e487b7160e01b600052603260045260246000fd5b6000823561013e19833603018112612aad57600080fd5b9190910192915050565b6000808335601e19843603018112612ace57600080fd5b8301803591506001600160401b03821115612ae857600080fd5b60200191503681900382131561236957600080fd5b6001600160401b03811681146111f857600080fd5b63ffffffff612b2089612450565b1681526020880135602082015260006040890135612b3d81612afd565b6001600160401b03811660408401525087606083015260e06080830152612b6860e083018789612a43565b6001600160a01b03861660a084015282810360c0840152612b8a818587612a43565b9a9950505050505050505050565b600060208284031215612baa57600080fd5b81516001600160401b03811115612bc057600080fd5b8201601f81018413612bd157600080fd5b8051612bdf6129a6826128b5565b818152856020838501011115612bf457600080fd5b61178582602083016020860161218d565b600060408284031215612c1757600080fd5b612c1f612863565b82358152602083013560208201528091505092915050565b600060208284031215612c4957600080fd5b8135610a9581612afd565b60018060a01b038516815283602082015261ffff83166040820152608060608201526000610b0f60808301846121b1565b604081526000612c9860408301856121b1565b828103602084015261178581856121b1565b600060208284031215612cbc57600080fd5b8151610a9581612485565b6040815263ffffffff8351166040820152602083015160608201526000604084015160a06080840152612cfd60e08401826121b1565b90506060850151603f198483030160a0850152612d1a82826121b1565b60809690960151151560c08501525050506001600160a01b039190911660209091015290565b600060408284031215612d5257600080fd5b612d5a612863565b9050815181526020820151602082015292915050565b600060408284031215612d8257600080fd5b610a958383612d40565b601f82111561123e576000816000526020600020601f850160051c81016020861015612db55750805b601f850160051c820191505b81811015612dd457828155600101612dc1565b505050505050565b81516001600160401b03811115612df557612df5612825565b612e0981612e0384546127f1565b84612d8c565b602080601f831160018114612e3e5760008415612e265750858301515b600019600386901b1c1916600185901b178555612dd4565b600085815260208120601f198616915b82811015612e6d57888601518255948401946001909101908401612e4e565b5085821015612e8b5787850151600019600388901b60f8161c191681555b5050505050600190811b01905550565b600060208083018184528085518083526040925060408601915060408160051b87010184880160005b83811015612f1857888303603f190185528151805163ffffffff1684528781015161ffff16888501528601516060878501819052612f04818601836121b1565b968901969450505090860190600101612ec4565b509098975050505050505050565b600060808284031215612f3857600080fd5b612f4061283b565b825181526020830151612f5281612afd565b6020820152612f648460408501612d40565b60408201529392505050565b634e487b7160e01b600052601160045260246000fd5b600082612fa357634e487b7160e01b600052601260045260246000fd5b500490565b80820281158282048414176108df576108df612f70565b803560208310156108df57600019602084900360031b1b1692915050565b6001600160c01b031981358181169160088510156130055780818660080360031b1b83161692505b505092915050565b6001600160401b0360c01b8560c01b16815263ffffffff60e01b8460e01b16600882015282600c8201526000825161304c81602c85016020870161218d565b91909101602c0195945050505050565b808201808211156108df576108df612f70565b8481526001600160401b0360c01b8460c01b166020820152826028820152600082516130a281604885016020870161218d565b9190910160480195945050505050565b6000602082840312156130c457600080fd5b8151610a95816121f0565b60008251612aad81846020870161218d56fea2646970667358221220a915e173c578b01778eba80cc676619be81594abf848ad879ea2a8c03b1a51a964736f6c63430008180033",
  "linkReferences": {},
  "deployedLinkReferences": {}
}